:020000040000FA
:0600000002124E0207B9D6
:03002B000210853B
:03003300020E05B5
:03004300020F2188
:03004B0002271178
:030053000206EAB8
:03006B00020DEB98
:1000830002074E0101FF01010503010F10FEFF9E50
:100093001A9E1A9E1A9E1A5A1954199E1A372D001F
:1000A300000000992D000000000C0000000C00016E
:1000B300FFFF414C442057534E2D73797374656D84
:1000C300000000000000010200EF050000006206CE
:1000D3006400020200000002050207051E02051E5D
:1000E300020A0A03B80B02803E01028816141F009D
:1000F300E0079651180002020630313233343536A8
:1001030037383941424344454600286E756C6C20AC
:10011300706F696E74657229003F3F3F0000008075
:100123007F0000803FF9021550B743BA5100002009
:100133004100E7DB2E0000A0401000000008000093
:10014300000A00000012129A604612126D603DE927
:10015300687008F618F618F618F622748067F71216
:10016300017C090909748067F72212126D601D1260
:10017300129A7005191919801A121121701F121180
:1001830036C37003E6673319191940071818182284
:1001930008080874FFF618F618F618F62212113636
:1001A30060171212D9702192F01212E370195017CE
:1001B30020F014080808090909E7F61819E7F618E2
:1001C30019E7F61819E7F6221212E360E6E86970F8
:1001D3001F0808E62480F608E436F618547FB47F37
:1001E3000CE654806007F6E418F618F62218182275
:1001F300E9C6CC08C6CD08C6CE08C6CFC0E0E8C065
:10020300E0EAC0E0EBC0E009E9F809E7FA09E7FB37
:10021300E6F918E6F8C3EC98ED99EE9AEBC2E7F528
:10022300F0EFC2E795F0500E600CEBCFFBEACEFA8D
:10023300E9CDF9E8CCF8EAA2E7D2E7FAEB33FB130E
:10024300F5F0EEA2E7D2E7FEEF33FFC5F013A2E726
:1002530030E601B313C5F0C3C0E0C0F07F00C39B19
:10026300FB605B9418600C401AD0E023F9D0E0F8EF
:1002730002034B8AF0E9486003D2F0E4AFF0FAF9E5
:10028300F8803BEB30E40D89F0EA6003D2F0E4AF91
:10029300F0F9CAF8EB30E30D88F0EF6002D2F0AF6B
:1002A300F0E4CAC9F8EB54076014FBC3EA13FAE994
:1002B30013F9E813F8EF135002D2E0FFDBEDD0E0BF
:1002C300C0E030E739C3E49FFFF5F0EC98FC42F05F
:1002D300ED99FD42F0EE9AFE42F0D0E0F9D0E0F85D
:1002E300E5F0607AE923F9EE20E742D8028067C39C
:1002F300EF33FFEC33FCED33FDEE33FE80EAEC2805
:10030300FCED39FDEE3AFED0E023F9D0E0F84002EF
:10031300801BC3EE13FEED13FDEC13FCEF13500231
:10032300D2E0FF08B800067F7F74FF802EEF3350C2
:10033300178CF020F00260100CBC000C0DBD0008FF
:100343000EBE000408E860DFE933E813FFEE231371
:10035300FE4F4D4C8008E95480FFE4FEFDFCEE3374
:10036300EF33F47004FCFD7E80D0E0FBD0E0FAD0E4
:10037300E0F8D0E0CFC618CEC618CDC618CCC6F963
:100383002212126D70041818182212129A700D742A
:10039300FFF61819F61819F61819F622E7548066AD
:1003A300F61212E3700F1212D970F014F608F60861
:1003B300F608F680D11212D9700CF608F60876808A
:1003C30008E6447F80EC121139700C12112460BFCF
:1003D300E65480F6E480BB121124700519191980C4
:1003E300A5E869700C763F18768018F618F6E8F9D8
:1003F30022E6CDC0E018ECC0E0E633CD33CDD31315
:10040300F6E719FCE7191933CC33C3947F400ECDBB
:100413009D502408E65480F6E418F6800FF4043D5A
:1004230014501408E6447FF6187680E418F618F69C
:10043300D0E0FCD0E0FD22CCD313CCFD18E4C6CB36
:10044300C0E018E4C6CAC0E00808ED08C633E613E6
:10045300F618E433C675F003C3CA97CA09CB97CB22
:10046300199C40047D08802EBD000302052D16B69D
:10047300FF050606081618C3CA33CACB33CB33CAE3
:1004830027CA09CB37CB193CC37D08803E187D08AA
:1004930020E75CC633C6CA33CACB33CB33DDF1D5D1
:1004A300F0EB30E77BCA97CA09CB974ACB199C403C
:1004B3006F4B7025E620E0218066187D08C3CA973C
:1004C300CA09CB97CB199CD3C633C6CA33CACB331D
:1004D300CB3350C9DDE7D5F0E1D3E4C636C608C651
:1004E30036C608C636C608C636C61818188031C3BD
:1004F300CA97CA09CB97CB199CB34097C633C6CAD0
:1005030033CACB33CB33DD34D5F02EC6A2E0C6409D
:10051300C8CA27CA09CB37194A70BECB3CB480B9C5
:100523000808E63308E633601F181818D0E0FAD03D
:10053300E0FBD0E0FCD0E0FD22187D08CA27CA0901
:10054300CB37CB193CD3808013F618E4B67F11F672
:1005530018B6FF0EF618C60470D20808768080CA53
:10056300F618F618F680C50012126D604F12129A33
:100573006012E7548066F612112170111212D970BD
:100583003B090909F4F618F618F618F62212113683
:1005930070151212E308080860EAE6447FF618763D
:1005A3008018E4F618F6221212E360161212D970BC
:1005B30012E4F608F608F608E65480F60909091865
:1005C300181822EAC0E0EBC0E0ECC0E0EDC0E0E6C2
:1005D30087F0A4FBACF008E687F0A42CFCE435F02C
:1005E300FA1809E687F0A42C4B60027401CA35F0AF
:1005F300FCE433FB09E687F0D2F7A42CCB35F0FCFF
:100603001908E687F0A42BCC35F0FBE433FD081979
:10061300E687F0D2E7A42C4ACB35F0CD3400FC09B1
:10062300E687F0D2E7A42DCC35F0FDE433FA0918C0
:10063300E687F0D2F7A42CCD35F0CA3400FC08E6E7
:1006430087F0D2E7D2F7A42ACC35F07A7E20E70BE5
:100653000ACB33CBCD33CDCC33CC33CB3350147027
:1006630004ED30E00ED2F1E4CD3DCDCC3CCC3B509B
:1006730005DA05C2F1EB547FC63308E63392F0FB8B
:10068300E73309E733C39A502D2B70190C0D4C4DEA
:1006930070151806E608C333700D20F10AA2F01393
:1006A300F6E418800B4024E4F630F002768018F666
:1006B30018F618F68024D33B14501074FFA2F013DD
:1006C300F6187680E418F618F6800FA2F013F618E1
:1006D300E63303F618ECF618EDF6D0E0FDD0E0FCB7
:1006E300D0E0FBD0E0FA22C0E074F2120AD9A2AF44
:1006F300E433FED2AFE5A7FFE5A1F5085F54106030
:100703000612225475A1EFE5085F5408600812220F
:100713005A75A1F7802BEFA2E0C0D0E508A2E092C2
:10072300F01211AC158182F05017906198E0F890A7
:100733000B40E0C398A2D265D0335002E8F075A114
:10074300FEEEA2E092AF7F01020B38C0E074F2121A
:100753000AD9A2AFE433FED2AF9061A4E0F8759B4F
:1007630000E59158540860087591F71222A2802A77
:10077300E59158541060087591EF1222A8801BE888
:10078300A2E0C0D0E591A2E092F01211AC158182F3
:10079300F05007E0C2E0F01223EC9061A3E0F8E52B
:1007A300E9585404600E1223C275E9FB906193E08B
:1007B300A2E640F2808BC0E074F2120AD9A2AFE441
:1007C30033FED2AF9061A5E0F8E5BF58540460064C
:1007D30075BFFB122404020744C3E498F8E499F9B3
:1007E30012081D8026C3E49AFAE49BFBE920E7E99B
:1007F30012081DE498F8E499F922C3E498F8E499FF
:10080300F912081DE498F8E499F9C3E49AFAE49B11
:10081300FB22EB20E7CFE920E7E0B90010BB00089B
:10082300E88AF084F8AAF022E4FBC8FA22EB7022EB
:100833007B10C833C8C933C9335007C39AC3DBF22B
:1008430080069A50012ADBEAC833F4C8C933F4C9D5
:10085300FA2275F008E4C833C8C933C933C99AC941
:100863009B5004C92AC93BD5F0ECFBC833F4C8E458
:10087300C9FA221208B620F01430E72B74FFFCFBF0
:10088300FA747F8022E4FCFBFA7480801AB4800837
:10089300BC00F2BB00EF800F50EBF9E4C39AFAE41B
:1008A3009BFBE49CFCE499C6CC18C6CB18C6CA18BB
:1008B300C6F922E4C9C608CAC608CBC6D33303089F
:1008C300CCC63392F0C3947F402E94184019C9B913
:1008D3000704CACBCC225025C309CA33CACB33CBB6
:1008E300CC33CC33D9F422F4600DC9CCC313CB136E
:1008F300CBCA13CAD9F6CC22E4FCFBFA2214FCFBC4
:10090300FA22080808EAC0E0EBC0E086F0E7A4FAA0
:10091300180986F0E7A42AFA180986F0E7A42AFA48
:10092300180986F0E7A42AFA1986F0E7A4FBE5F094
:100933002AFA190886F0E7A42BFBE5F03AFA19081E
:1009430086F0E7A42BFBE5F03AFA18180986F0E7DE
:10095300A4C5F02BFBE43AFA1908E7C5F0C6A426B0
:10096300F6E5F03BFBE43AFA1886F0E7A4F6E5F087
:100973000826F6E43B08F6E43A08F6D0E0FBD0E0BC
:10098300FA22080808E630E71112115F12099D08E0
:100993000808C64480C618181822181818E9799E42
:1009A300C608CAC608CBC608CCC6C370207996CA87
:1009B300CBCC7019798ECBCC70137986CC700EF9B1
:1009C300802ACA33CACB33CBCC33CC331930E7F2CA
:1009D300CCCBCA3350147004EA30E00DE4CA3ACAEF
:1009E300CB3BCBCC3CCC500209C3E913C6CC182378
:1009F30013C6CB18C6CA18C6F922E4CFC0E0E4CEAA
:100A0300C0E0E4CDC0E0E4CCC0E075F020C3E63341
:100A1300F608E633F608E633F608E633F618181850
:100A2300EC33FCED33FDEE33FEEF33FFC3EC9709FC
:100A3300ED9709EE9709EF97191919400FFFEC97F6
:100A4300FC09ED97FD09EE97FE191906D5F0BEECEA
:100A5300F709EDF709EEF709EFF7191919D0E0FCDB
:100A6300D0E0FDD0E0FED0E0FF222518C582C0E033
:100A7300E51934FFC583C0E0E518C3958224F81057
:100A8300AF088583198582188008858319858218A4
:100A9300D2AFCEF0A3E520F0A37808E608F0A3DEFA
:100AA300FAEFF0A3E58124FAF8E608F0A3E608F0EC
:100AB300A3E608F0A30808E608F0A3E608F0A315E8
:100AC300811581D0E0FED0E0F8158115811581E80C
:100AD300C0E0EEC0E022C0D02518C582C0E0E51911
:100AE30034FFC583C0E0E518C3958224F310AF0833
:100AF3008583198582188008858319858218D2AF6A
:100B0300C8F0A3E9F0A3EAF0A3EBF0A37908E7099F
:100B1300F0A3D8FAECF0A3EDF0A3EEF0A3EFF0A36B
:100B2300D0E0F0A3D0E0F0A3D0E0F0A3E520F0A361
:100B3300E5F0F0A322851983851882E0C0E0A3E0E5
:100B4300F9A3E0FAA3E0FBA37808E0F608A3DFFA31
:100B5300E0FCA3E0FDA3E0FEA3E0FFA3E0C0E0A36D
:100B6300E0C0E0A3E0F5D0A3E0F520A3E0A3F5F017
:100B730010AF0885831985821880088583198582BB
:100B830018D2AFD082D083D0E0F8D0E0321212CEA8
:100B9300B90003020BD2E49003017807790F8002B6
:100BA300F0A3D8FCD9FA901107AA82AB83900086F0
:100BB30078C379018015E493A3AC82AD838A828BD9
:100BC30083F0A3AA82AB838C828D83D8E9D9E7759E
:100BD300820A7583877404120FE475820A7583276A
:100BE3007400120FE475F0108E1A8F1B85821F8517
:100BF300831E851882851983E0CEA3E0CF851F82EB
:100C0300851E83EBC9EAC8EDCBECCAC3E833C8E958
:100C130033C9EA33CAEB33CBC3EA9EF51DEB9FF529
:100C23001CB35004AB1CAA1DEC33CCED33CDD5F073
:100C3300DAAE1AAF1B2212126D601C12129A6017E1
:100C43001212E370071212D97001D322C0D012120C
:100C5300D97006D0D0B322C32233D0D0501430E0A1
:100C6300F6C3E7960809E7960809E7960809E796A1
:100C7300B32220E0D5E6970809E6970809E6970826
:100C830009E697B322D083D082ECC0E0EDC0E0E464
:100C930093A3FCE493A3FDED4C600D120DACEC2487
:100CA300FFFCED34FFFD80EFE493A3FCE493A3FD8D
:100CB300ED4C600D120EA6EC24FFFCED34FFFD801D
:100CC300EFD0E0FDD0E0FCE493A3C0E0E493C0E008
:100CD3002212126D601B12129A60161212E3700731
:100CE3001212D9600CB322C0D01212D97005D0D021
:100CF30022C32233D0D0501330E0EBC3E796080968
:100D0300E7960809E7960809E7962220E0E4E697C4
:100D13000809E6970809E6970809E69722851983E3
:100D2300851882E0A3FEE0A3F5207808E0A3F60887
:100D3300DFFAE0A3FFE0A3C0E0E0A3C0E0E0A3C0CC
:100D4300E0E0A3C0E0E0A3C0E010AF08858218850F
:100D530083198008858218858319D2AFD083D08206
:100D6300020FEAD083D082E9C0E0E493A3C386F004
:100D7300C5F095F0F908E493A386F0C5F095F070FB
:100D83000BE493A3C3994005E9048002A3E475F03F
:100D930002A42582F582E5F03583F583D0E0F9E4FA
:100DA30093A3C0E0E493C0E022C0E0C3E4939608B9
:100DB3007401939618400FE49366700808740193C6
:100DC300661870007019A3A3C3E493960874019383
:100DD3009618A3A3400DD0E0D0E0D0E0020CC4A34A
:100DE300A3A3A3A3A3D0E022C0E074F2120AD9E51F
:100DF30089A2E1500312210A758900C2C57F01024D
:100E03000B38C0E074F2120AD9E58BA2E05003124A
:100E1300210A758B00C2E880E474048004740280A4
:100E230000CCC0E0EDC0E0E518C39CCCAD19500187
:100E33001D10AF068C188D1980068C188D19D2AF32
:100E4300120F66D0E0FDD0E0FC2274028000CCC01B
:100E5300E0EDC0E0E518C39CCCAD1950011D10AF07
:100E6300068C188D1980068C188D19D2AF120F4479
:100E7300D0E0FDD0E0FC2212126D602512129A60C0
:100E8300201212E370030212D9080808E7667010F3
:100E93001819E766700A1819E76670041819E766E7
:100EA30022F422C0E0C0F088F0E49366700808746E
:100EB300019366187000A8F0A3A3700BD0F0D0E0E4
:100EC300D0E0D0E0020CC4A3A3D0F0D0E022D083C2
:100ED300D082CCC0E0E493A36006120FC51470FA6D
:100EE300E493A360061210CC1470FAD0E0FCE493F0
:100EF300A3C0E0E493C0E022C008C3E096F508086D
:100F0300A3E096420808A3E096420808A3E09642AD
:100F130008A2D265D033E5087001D3D00822C0E01F
:100F230074F2120AD9A2AFE433FED2AFC2C0E5D144
:100F3300A2E450031221D0EEA2E092AF7F01020B94
:100F430038CAC0E0E493A3C582CCC582C583CDC5AE
:100F530083F0A3C582CCC582C583CDC583DAE5D032
:100F6300E0CA22CAC0E0E0A3C582CCC582C583CD56
:100F7300C583F0A3C582CCC582C583CDC583DAE61C
:100F8300D0E0CA22C008C3E096F50808A3E0964261
:100F93000808A3E096420808A3E09645087001D329
:100FA300D008227009080808226016181818C6C34A
:100FB30033C608C633C608C633C608C633C6D5E02B
:100FC300EA22C0E0E493A3D39C5010E493A3C39C10
:100FD300400AD0E0D0E0D0E0020EEEA3A3A3D0E01D
:100FE30022C09FF59FE473D09F22D083D082C09FFD
:100FF300E493C0E0740193C0E0740293F59F22254B
:1010030018F58210AF08F518400215198008F51875
:1010130040021519D2AF851983227404800A740320
:101023008006740280027401C0E0F404121002D03E
:10103300E01212A922C0D0251810AF08F5185002EB
:1010430005198008F51850020519D2AFD0D022BB7C
:101053000102E722C082C08389828A83BB0003E046
:101063008002E493D083D082226016080808C6C3A6
:1010730013C618C613C618C613C618C613C6D5E0BA
:10108300EA22C0E0C0D0E8C0E0E5A8D2AFC2C7A260
:10109300E792AFD0E0F8D0D0D0E032C3E0C696F606
:1010A30008A3E0C696F608A3E0C696F608A3E0C632
:1010B30096F622251810AF08F51840021519800876
:1010C300F51840021519D2AF22C0E0E493A36C7067
:1010D30009D0E0D0E0D0E0020EEEA3A3D0E022C31B
:1010E300E09608A3E09608A3E09608A3E096A2D2B0
:1010F30065D03322E066701008A3E066700A08A387
:10110300E066700408A3E06622E76670100809E74A
:1011130066700A0809E76670040809E7662218186A
:1011230018E6084608700AE608C3337005E633F488
:10113300220822191919E7094709700AE709C33375
:101143007005E733F4220922C3E096F008A3E09682
:10115300F008A3E096F008A3E096F022181818E42C
:10116300C396F608E496F608E496F608E496F622A3
:10117300E026F608A3E036F608A3E036F608A3E077
:1011830036F622E026F008A3E036F008A3E036F0B6
:1011930008A3E036F022E627F60809E637F6080941
:1011A300E637F60809E637F622C0E0E8C0E0E58155
:1011B30024FCF8E6A2E7D0E0F8D0E022E657F608F0
:1011C30009E657F60809E657F60809E657F622E056
:1011D30056F008A3E056F008A3E056F008A3E05643
:1011E300F022700422600D18C6C333C608C633C686
:1011F300D5E0F41822E647F60809E647F60809E6BB
:1012030047F60809E647F622E056F608A3E056F645
:1012130008A3E056F608A3E056F622C6F4C608C6AD
:10122300F4C608C6F4C608C6F4C622C3E09608A3EB
:10123300E09608A3E09608A3E09622C3E796080980
:10124300E7960809E7960809E7962275D0007581A5
:101253004075180175190300020B90E6F008A3E628
:10126300F008A3E6F008A3E6F022E6084608C31355
:101273004608336002E633F422600C08C6C313C683
:1012830018C613C6D5E0F422E0F608A3E0F608A3D7
:10129300E0F608A3E0F622E7094709C31347093339
:1012A3006002E733F422CAC0E0E6F0A308DAFAD01A
:1012B300E0FA22EAF0A3EBF0A3ECF0A3EDF022E0D6
:1012C300FAA3E0FBA3E0FCA3E0FD22E5C754F84446
:1012D30001F5C7790122E7C3331947194719472293
:1012E300E6C333184618461846222518F582E43516
:1012F30019F58322C2AF75D69F02000022120FEDAB
:101303002A3400120FEDDA3400120FED9235001279
:101313000FED5A3600120FED1A3700120FED5E373C
:1013230000120FED833700120FEDC63700120FEDD9
:10133300133800120FED6B3900120FEDF139001263
:101343000FED0F3A00120FED393A00120FED533A39
:1013530000120FED623A00120FED6D3A00120FED1D
:101363002D3B00120FED863B00120FED483C00129F
:101373000FED503C00120FED143D00120FED803DB8
:1013830000120FEDAB3E00120FEDD03E00120FED39
:10139300463F00120FEDD83F00120FED98400012A8
:1013A3000FEDB74000120FEDC64100120FEDD8410B
:1013B30000120FED484200120FED724200120FEDC2
:1013C300004300120FED394300120FED8543001265
:1013D3000FEDA14400120FEDEA4600120FEDF546A2
:1013E30000120FED004700120FED0B4700120FED37
:1013F300154700120FED204700120FED3A47001278
:101403000FED444700120FED4E4700120FED594701
:1014130000120FED814700120FEDDC4700120FEDB4
:10142300E64700120FED0A4800120FED2E48001296
:101433000FED8C4800120FEDD04800120FEDEC4871
:1014430000120FED634900120FED9B4900120FEDDF
:10145300E74900120FED444A00120FEDFE4A001255
:101463000FEDE24C00120FED3B4D00120FED6B4EF2
:1014730000120FED914E00120FED1A5000120FEDF6
:10148300965300120FED685500120FED31570012FD
:101493000FEDDE5700120FED495900120FEDE85919
:1014A30000120FED2D5A00120FED975A00120FED97
:1014B300A65A00120FED2D5D00120FEDDF5E001234
:1014C3000FED4C5F00120FED2B6000120FED446126
:1014D30000120FEDC16200120FEDE06200120FED7A
:1014E300356300120FED3A6400120FED62640012CF
:1014F3000FEDBA6400120FED996500120FEDDD6573
:1015030000120FED286600120FED936600120FED27
:10151300D46700120FED386800120FED86690012D0
:101523000FEDE66B00120FED176C00120FEDCF6D90
:1015330000120FED246E00120FED286F00120FED55
:10154300C56F00120FED1E7000120FEDD170001267
:101553000FED737100120FED137200120FEDB872DD
:1015630000120FED088A01120FED478A01120FEDE9
:101573008E8C01120FEDD88C01120FEDF38D011239
:101583000FED5B8E01120FED908E01120FED0490A3
:1015930001120FED879201120FEDB09301120FEDBF
:1015A300469401120FED4E9D01120FEDE39D0112C2
:1015B3000FEDCAA001120FEDBDA101120FED2BA279
:1015C30001120FED71A301120FED53A401120FEDE0
:1015D30038A601120FED49A801120FEDB3A80112AD
:1015E3000FED85A901120FEDB3A901120FED70AA3A
:1015F30001120FED47AB01120FED0EAC01120FED0F
:10160300B2AC01120FEDDBAC01120FEDFDAC011218
:101613000FED53AF01120FED2BB001120FED6FB0B1
:1016230001120FEDD7B001120FED8FB101120FEDC3
:10163300C1B101120FED05B201120FED3BB2011260
:101643000FED87B201120FEDDCB201120FEDE1B223
:1016530001120FED34B301120FED59B301120FED67
:1016630068B401120FEDCCB401120FED3CB50112B9
:101673000FEDC8B501120FED95B801120FED79B951
:1016830001120FEDFCBA01120FED32BD01120FED85
:10169300E0BD01120FED90BE01120FEDD1C001129A
:1016A3000FED74C101120FEDBBC101120FED67C342
:1016B30001120FED7BC301120FED85C301120FED74
:1016C300ADC301120FEDB9C301120FEDD8C301125F
:1016D3000FEDF8C501120FED47C701120FED8BC7D0
:1016E30001120FED33C801120FED16C901120FEDF0
:1016F300C1C901120FED0DCB01120FED0BCC01127D
:101703000FEDB1CC01120FED41CD01120FED58CD0C
:1017130001120FED8FCD01120FED99CD01120FEDD7
:10172300A4CD01120FEDC2CD01120FED06CE0112B1
:101733000FED63CE01120FED88CE01120FEDA2CE95
:1017430001120FED2ECF01120FED4BD001120FED51
:10175300B8D001120FED9FD101120FEDC6D10112C6
:101763000FED3AD201120FEDB5D201120FEDB9D33D
:1017730001120FEDAFD401120FED5ED501120FED83
:1017830071D601120FED0DD701120FED9AD7011289
:101793000FED78D801120FEDB0D801120FED08D973
:1017A30001120FEDD1D901120FEDF2D901120FED94
:1017B30079DA01120FED9DDA01120FEDBFDA011292
:1017C3000FED08DB01120FED1EDD01120FED05DE3B
:1017D30001120FEDB6DE01120FEDECE001120FED79
:1017E3003CE101120FED7CE101120FEDBEE10112AC
:1017F3000FED1AE201120FED48E201120FED6CE258
:1018030001120FEDBFE201120FEDEDE201120FED38
:1018130026E301120FED7BE301120FEDE1E3011269
:101823000FED35E501120FED58E701120FEDC5E796
:1018330001120FEDEEE701120FED79E801120FED42
:10184300E0E801120FED2BE901120FED4FE9011250
:101853000FED73E901120FEDCEE901120FEDE9E986
:1018630001120FEDA2EA01120FED8F9F04120FED8B
:10187300CE9F04120FED788002120FEDBE8002128C
:101883000FED9E8102120FEDA08202120FEDA383D2
:1018930002120FED2F8502120FED8D8502120FED4F
:1018A3004A8602120FED688702120FEDD9870212E2
:1018B3000FED158802120FED638802120FED6D888C
:1018C30002120FEDB18802120FED0D8902120FED16
:1018D300A88902120FED258A02120FEDF48A021273
:1018E3000FED8D8B02120FEDAD8B02120FEDE38B1B
:1018F30002120FED148C02120FEDD58C02120FEDB4
:10190300E58C02120FED398D02120FED548D021288
:101913000FED668D02120FED6F8D02120FEDC98D63
:1019230002120FED258E02120FED718E02120FEDD2
:101933008C8E02120FEDBD8E02120FEDDA8E0212A3
:101943000FEDE68E02120FED5A9002120FED739017
:1019530002120FEDDA9002120FEDED9002120FED6D
:10196300FB9002120FEDAF9102120FED9392021250
:101973000FED999302120FED239402120FED2D94A4
:1019830002120FED9A9402120FEDB19402120FEDB1
:10199300E39402120FED1C9502120FED469502120D
:1019A3000FEDA79502120FEDC79502120FEDE59506
:1019B30002120FED2B9602120FED519702120FED4B
:1019C3009E9702120FEDCD9702120FED439802126C
:1019D3000FED6B9802120FEDA49802120FEDB2985F
:1019E30002120FED0A9902120FED599902120FED2F
:1019F300989902120FEDC89902120FEDF499021291
:101A03000FEDFF9902120FED1D9A02120FEDDF9AEF
:101A130002120FEDE99A02120FED2A9B02120FED4B
:101A23007F9B02120FED939B02120FEDA19C0212FA
:101A33000FEDB49C02120FEDC99C02120FED6B9DCA
:101A430002120FEDEE9D02120FEDAC9E02120FED8E
:101A5300B79E02120FEDE39F02120FEDFF9F0212DA
:101A63000FED51A002120FED90A002120FEDA5A0F1
:101A730002120FED07A102120FED96A102120FED54
:101A8300E1A102120FED32A402120FEDB0A4021273
:101A93000FED25A502120FED47A702120FED5FA769
:101AA30002120FED62A702120FED6EA702120FEDE5
:101AB30082A702120FED8AA702120FEDBDA7021231
:101AC3000FED6DA802120FEDE3A802120FED56A958
:101AD30002120FED0AAA02120FEDBFAA02120FEDB6
:101AE300DEAA02120FED84AB02120FEDAFAB0212AE
:101AF3000FEDB2AB02120FED1CAC02120FED44ADB1
:101B030002120FED1CAE02120FEDA7AE02120FED83
:101B1300C0AF02120FED7DB002120FEDB6B002128C
:101B23000FEDE7B002120FEDA5B102120FEDD5B123
:101B330002120FEDB0B202120FED49B302120FED14
:101B4300D4B302120FED85B402120FED08B50212E1
:101B53000FED3AB502120FED7BB502120FEDF1ABAB
:101B630003120FED56AC03120FED93AC03120FEDFE
:101B7300E2AC03120FEDF8AE03120FEDDBB003126C
:101B83000FED45B403120FED80B403120FEDA2B4B1
:101B930003120FED05B503120FED39B503120FED67
:101BA3005CB503120FED89B503120FEDE5B5031212
:101BB3000FED047300120FED827300120FEDB87373
:101BC30000120FED247400120FED977500120FED44
:101BD300B37500120FEDF87500120FED8676001243
:101BE3000FEDDF7600120FED0C7800120FED1E796A
:101BF30000120FED7B7900120FEDE77900120FED64
:101C0300487A00120FED897A00120FED367B00122D
:101C13000FED487C00120FED737C00120FEDBE7CBC
:101C230000120FED057D00120FED23E402120FEDFC
:101C3300527E00120FED31B603120FED3BB60312C5
:101C43000FED87B603120FEDF5B603120FED16B7BE
:101C530003120FEDC6B703120FED5ABA03120FEDBD
:101C630063BA03120FEDB6BA03120FEDDFBA031214
:101C73000FED46BB03120FEDD7BB03120FED19BCDB
:101C830003120FED63BC03120FEDC2BC03120FED81
:101C9300EEBC03120FED7FBD03120FEDBEBD0312A9
:101CA3000FEDD93300120FED32BE03120FED44BE18
:101CB30003120FED56BE03120FED75BE03120FEDA7
:101CC3007EBE03120FED34BF03120FED74BF031278
:101CD3000FED4E9C04120FED7B9104120FEDB191A9
:101CE30004120FEDFA9104120FED4A9304120FED53
:101CF300DCEA01120FED1BEC01120FED57EC0112A0
:101D03000FED16EE01120FED3FEE01120FEDD2F0C3
:101D130001120FED16F101120FED9FF201120FEDFB
:101D230037F301120FED9FF301120FED40F401128F
:101D33000FED82F401120FEDC2F401120FED4DF617
:101D430001120FEDBDF701120FEDE2F901120FEDD4
:101D530010FA01120FED37FA01120FED40FA0112DA
:101D63000FEDC7FA01120FEDE5FD01120FEDFAA019
:101D730004120FED10A104120FED449F04120FED96
:101D830088FC03120FED9BFC03120FED38FD0312C9
:101D93000FED73FD03120FED8EFD03120FEDB3FD77
:101DA30003120FEDF8FD03120FED29FE03120FEDE1
:101DB3005AFE03120FEDE0FF03120FED62FE021253
:101DC3000FED98FE02120FEDB4FE02120FEDF6FEB8
:101DD30002120FED06FF02120FED9BFF02120FED31
:101DE300A5FF02120FEDD9C803120FEDBDCA0312EE
:101DF3000FED11CC03120FEDC3CE03120FEDA9CFDC
:101E030003120FED60D103120FED7AD103120FED20
:101E1300ACD103120FEDC6D103120FEDD2D10312D1
:101E23000FEDCA9E03120FED1F9F03120FED08A0C3
:101E330003120FEDA1A003120FEDEBA003120FEDA0
:101E430048A103120FED5CA103120FED8EA1031243
:101E53000FED8CA203120FEDD0A203120FEDEBA234
:101E630003120FED3AA303120FED50A303120FED6C
:101E73005DA303120FED91A303120FEDAAA30312A7
:101E83000FED74A403120FEDCEA403120FED1CA5E6
:101E930003120FED3EA503120FEDB5A703120FEDCD
:101EA300EAA703120FED7AA803120FEDEFA80312AE
:101EB3000FEDF4A803120FED30A903120FED86A95D
:101EC30003120FED4AAA03120FED6FAA03120FEDCF
:101ED30079AA03120FED7CAA03120FED05AB0312CF
:101EE3000FED20AB03120FED33AB03120FED6EAB0F
:101EF30003120FED71AB03120FED7CAB03120FED69
:101F0300B8AB03120FEDF79E04120FED0F9F0412EF
:101F13000FEDA0DA03120FEDEFDA03120FED91DCF0
:101F230003120FED4FDE03120FED97DE03120FEDD9
:101F3300B9DF03120FEDEAE003120FED0CE1031218
:101F43000FED68E103120FEDEAE103120FED68E410
:101F530002120FED89E402120FED13E502120FEDE9
:101F630098E502120FED14E602120FED7DE6021260
:101F73000FEDC9E602120FED48E702120FEDDAE7A3
:101F830002120FED66E802120FEDA8E802120FED40
:101F930014ED02120FED94EE02120FED6AEF02122E
:101FA3000FED99EF02120FED84F102120FED04F41D
:101FB30002120FEDBDF402120FEDDAF502120FED6E
:101FC30031F902120FED41F902120FEDA2FA0212DA
:101FD3000FED2EFB02120FED57FC02120FED48FD21
:101FE30002120FEDCAFD02120FED4F9003120FED17
:101FF300099103120FED7B9103120FED1792031258
:102003000FED879203120FED409503120FED179614
:1020130003120FED849603120FED019803120FEDD7
:10202300CB9803120FED3B9903120FED049B0312A0
:102033000FED179C03120FEDB09C03120FED769D6D
:1020430003120FEDEEF803120FED42F903120FED39
:102053009AF903120FEDE5F903120FED47FA031294
:102063000FEDB3FA03120FED66FB03120FEDA7FB9F
:1020730003120FEDBDFB03120FED19FC03120FED5D
:1020830057FC03120FED959504120FEDC69504123C
:102093000FED809604120FEDE69604120FED8C8778
:1020A30004120FED188904120FED85A004120FED31
:1020B30096A004120FED6F9704120FED7D97041293
:1020C3000FEDEDFF03120FED619E04120FED719EF4
:1020D30004120FED8C9E04120FEDED9E04120FED12
:1020E3004C9B04120FEDD19B04120FED359C04128F
:1020F3000FED3A9A04120FED5C9A04120FEDC69A93
:1021030004120FEDD19A04120FED159B04120FED7B
:10211300EED103120FEDFCD103120FED3DD20312EA
:102123000FED5ED203120FEDDBD203120FEDDBD303
:1021330003120FEDFDD303120FED69D403120FED5C
:1021430084D403120FED9FD403120FEDA9D403120D
:102153000FEDB3D403120FEDC6D403120FEDDFD48A
:1021630003120FED7BD503120FED37D603120FEDDC
:10217300AED603120FED28D703120FED74D7031257
:102183000FED1AD803120FEDF6D803120FED0080EE
:1021930004120FED0E8004120FED888004120FED70
:1021A3006C8104120FED258304120FEDD8A00412E5
:1021B3000FED1EE203120FED8AE203120FED49E366
:1021C30003120FED53E403120FEDACE503120FED11
:1021D30007E603120FED5CE603120FED65E603124B
:1021E3000FED77E603120FEDE1E603120FEDF5E6CF
:1021F30003120FEDBCEB03120FED11EC03120FED05
:102203000DEE03120FED3FEE03120FED61EE03121D
:102213000FED7AEE03120FED93EE03120FED9DEF28
:1022230003120FED38F003120FED66FE01120FEDEE
:102233008AFE01120FEDA3FE01120FEDD6FE01126D
:102243000FED07FF01120FED35FF01120FED97FFA1
:1022530001120FEDA6FF01120FEDB0FF01120FEDFA
:10226300BDFF01120FED288A04120FED4E8A0412EE
:102273000FED8B8A04120FED9A8A04120FEDB98ABF
:1022830004120FED218B04120FED2A8B04120FEDB4
:10229300898B04120FEDAD8B04120FED6C8C0412BD
:1022A3000FED798C04120FED8A8C04120FED1CA034
:1022B30004120FED39A004120FEDAFF003120FED6E
:1022C3000DF203120FED1AF203120FED2DF20312AA
:1022D3000FED4CF203120FED62F203120FED76F2E3
:1022E30003120FEDEBF203120FED50F303120FED98
:1022F30000F403120FEDD5F403120FEDE5F403120E
:102303000FEDF4F403120FEDC89D04120FEDEC9DD5
:1023130004120FED149E04120FED3C9E04120FEDF8
:10232300B88C04120FEDDF8C04120FED008D041234
:102333000FED658D04120FED1E8F04120FED378F15
:1023430004120FED438F04120FED578F04120FED9C
:10235300758F04120FED7F8F04120FED898F041216
:102363000FED9C8F04120FEDEF8F04120FED2890E9
:1023730004120FED579004120FEDA59004120FED08
:10238300F49004120FED0F9104120FED1991041242
:102393000FED2A9104120FED709104120FEDA8FFB7
:1023A30002120FED9DBF03120FEDC7BF03120FED16
:1023B300E3BF03120FEDF6BF03120FED0CC00312C0
:1023C3000FED69C003120FED9CC003120FEDD8C4CB
:1023D30003120FEDFEC503120FED31C603120FED0D
:1023E3007DC603120FEDA9C703120FEDD1C7031268
:1023F3000FEDE6C703120FEDF6C703120FED3AC850
:1024030003120FED9BC803120FEDABC803120FEDC0
:10241300C97E00120FEDE47E00120FED0D7F001256
:102423000FED277F00120FED4C7F00120FED6B7F36
:1024330000120FED837F00120FEDB17F00120FED3D
:10244300CB7F00120FEDD89F04120FED8A83041285
:102453000FED918304120FED9D8404120FEDCD84D3
:1024630004120FEDF38404120FED168504120FED21
:10247300388504120FED728504120FEDD88504120E
:102483000FED118604120FED5D8604120FED8A869F
:1024930004120FEDAA8604120FEDAD9304120FED93
:1024A300C59304120FEDB39404120FED9295041229
:1024B3000FED279904120FED999904120FEDD79997
:1024C30004120FED189A04120FED2DF503120FED00
:1024D3004CF503120FED9BF503120FEDB7F5031245
:1024E3000FEDE8F503120FEDF5F503120FED02F60C
:1024F30003120FEDEEF603120FED2CF703120FED9F
:102503003CF803120FED47F803120FED59F80312CD
:102513000FED62F803120FED6CF803120FEDFFE6F7
:1025230003120FED44EB03120FED52EB03120FED09
:1025330058A004120FED219D04120FED4B9D0412C0
:102543000FEDC7FF01120FEDB0A004120FED1AA19A
:1025530004120FED008003120FED1E8503120FED21
:10256300EFE202120FED4CE202120FEDFFE0021256
:102573000FEDAADE02120FED40DE02120FEDF8DDC1
:1025830002120FED6ADD02120FED5DDD02120FED97
:1025930057DA02120FEDB9D702120FEDB233001260
:1025A3000FED6E3300120FED82D602120FEDD6D56A
:1025B30002120FED333300120FED0D3300120FED46
:1025C3001CD402120FEDCCD102120FED53D1021223
:1025D3000FEDFAD002120FED8AD002120FED61D087
:1025E30002120FED41CE02120FED0DCE02120FEDCE
:1025F300DACD02120FEDBECD02120FEDD7CC0212CF
:102603000FED8FCC02120FEDDACA02120FED5ACA88
:1026130002120FED57CA02120FED58C902120FED45
:1026230026C902120FED63C802120FED8EC6021205
:102633000FED1FC602120FEDF1C502120FEDF432BA
:1026430000120FEDA03200120FEDFC3100120FED5E
:10265300723100120FED113100120FEDEEC50212AF
:102663000FEDDBC502120FED86C502120FEDBF3071
:1026730000120FED75C502120FED67C402120FEDC4
:1026830031C402120FEDDFC302120FEDAD300012A1
:102693000FEDFDBD03120FED80C302120FED4FC30B
:1026A30002120FED17C002120FEDD7BF02120FED8A
:1026B300CBBF02120FED2BBF02120FED6BBE021246
:1026C3000FEDEDBB02120FED7EB902120FED3CB917
:1026D30002120FED10B802120FEDC5B702120FED83
:1026E30004B702120FEDD7B602120FED1AB602129B
:1026F3000FEDB0B502120FEDEAB502120FED41E492
:1027030002120FED977D0000000080FBE47332009E
:1027130000000000000000000000000000000010A6
:10272300101010101000003030000000142850006A
:102733000000000000000000000000002828FC2822
:102743004850FC5050000000001038545430181406
:10275300545438100000000044A8A8B0541A2A2A80
:1027630044000000000020505060ACA898927C0008
:102773000000606020C000000000000000000000B6
:10278300040808101010101010080804000000407E
:102793002010080408102040000000000000101062
:1027A300D63838D61010000000000000101010FEBC
:1027B30010101000000000000000000000000000E6
:1027C30000606020C0000000000000FC000000006A
:1027D3000000000000000000000000000060600036
:1027E3000000020404040808101020202040000008
:1027F3000000304884848484844830000000000052
:1028030010701010101010107C00000000003844ED
:102813004404081020447C0000000000384444189D
:102823000404444438000000000808182848488875
:102833007C081C00000000007C40407844044444B1
:102843003800000000003C4480B8C48484847800CD
:10285300000000007C444808101010101000000015
:102863000000788484487884848478000000000021
:10287300788484848C740488F000000000000000D5
:102883003030000000303000000000000000001075
:102893000000000010102000000408102040201049
:1028A30008040000000000000000FC0000FC000021
:1028B3000000000000402010080408102040000021
:1028C3000000007884848408101000303000000079
:1028D300000038449AAAAAAAB4423C0000000000AF
:1028E3001010282828384444EE0000000000F84463
:1028F300447844444444F800000000003C4484808D
:1029030080808044380000000000F0484444444480
:102913004448F00000000000FC444048784840442C
:10292300FC0000000000FC42404878484040E000C2
:10293300000000003C448480808E84443800000002
:102943000000EE4444447C444444EE000000000094
:102953007C101010101010107C00000000007C1080
:102963001010101010101090E0000000EE444850BA
:1029730070484844EE0000000000E0404040404002
:102983004044FC0000000000EE6C6C6C5454545442
:10299300D60000000000EE64645454544C4CE40030
:1029A30000000000304884848484844830000000A0
:1029B3000000F844444478404040E0000000000038
:1029C300304884848484B448380C00000000F84400
:1029D300447850484844E600000000003C4440204E
:1029E30018040444780000000000FE921010101038
:1029F3001010380000000000EE44444444444444B2
:102A0300380000000000EE44442828282810100055
:102A130000000000D6545454546C282828000000A9
:102A23000000EE44282810282844EE00000000008F
:102A3300EE442828101010103800000000007C8895
:102A4300081020204044FC0000001C10101010103F
:102A530010101010101C0000701010101010101027
:102A630010101070000070101010101010101010C3
:102A7300107000001028000000000000000000009B
:102A83000000000000000000000000000000FE0045
:102A9300606020C000000000000000000000000093
:102AA30000000038441C24443E0000000000C040E5
:102AB3004078444444447800000000000000003C97
:102AC300444040443800000000000C04043C4444EB
:102AD30044443E000000000000000038447C4044B1
:102AE3003800000000001C2420F82020202078005B
:102AF300000000000000003C4848304078443800A3
:102B03000000C040405864444444EE00000000000C
:102B130010000070101010107C000000000008006E
:102B2300003808080808080870000000C040405C2E
:102B330048507048EC000000000070101010101096
:102B430010107C0000000000000000F8545454549E
:102B5300D60000000000000000D864444444EE00A6
:102B630000000000000000384444444438000000E2
:102B73000000000000F8444444447840E0000000B2
:102B83000000003C444444443C040E0000000000A8
:102B930000EC30202020F800000000000000003C82
:102BA300443008447800000000000010107C10102E
:102BB30010100C0000000000000000CC444444440A
:102BC3003E0000000000000000EE4428282810000A
:102BD30000000000000000D65454542828000000D0
:102BE3000000000000DC48303048EC00000000002A
:102BF300000000EE442828101020E0000000000030
:102C0300007C481010247C000010101010101010CD
:102C130010101010101010000136360101000102CF
:102C2300010001030100010401060605020000077B
:102C33000100340801000F090401010D0100FF0E1A
:102C430008000017020000190100FF1A0100011B10
:102C53000100FE1C0100081D0200001F01000120ED
:102C6300010001210200002301000F2402000026BD
:102C730001000127010008280200FF2A0100072B99
:102C83000102402C0100002D0100012E0100012F43
:102C93000100FF30010B1C310800003A0100083B22
:102CA30001000F2F010000C9EEDBDACAD0B0B2C1B8
:102CB300AAB5C2BFC6BCBCD3C3BBA7B5C7C2BCD52C
:102CC300CABAC5C3DCC2EBC8B7B6A8C8A1CFFBD785
:102CD300A8D2B5D7A8D7A2CEDECFDFCDA8D1B6B3C1
:102CE300CFD0C5C1A2D7E3B4B4D0C2D6C2D4B6C77D
:102CF300BFB4F3D4ADCEC2CAAAB6C8D6D5B6CBD26A
:102D0300BBB6FEC8FDCBC4CDA3CBAEB5E7D7C5BB21
:102D1300F0B6CFCDF8B5D8D6B7D0ADB5F7C6F7C2B4
:102D2300B7D3C9A3BAA1E6A3A5C6F8CCE5D2ECB341
:102D3300A3D5FD0003007100300160001100700095
:102D430031022003500480001000610000001400D1
:102D5300630073007200620043000000130006006A
:102D6300000000000400120000000000000000004A
:102D730004000400370037003C0244000000000058
:102D83000000000065000000350081000000050020
:102D93000000830000000103710301030103010329
:102DA30001030103220302030103100300030003D1
:102DB3000003000300030003000342030003240392
:102DC300060300030003040312032503230325035F
:102DD3002303040304030003000300034403000369
:102DE300000323030003650321003503810300036C
:102DF3000503000300030003010171010101010147
:102E03001101010131010101010180011001610181
:102E13003B0014006301730172016201430100016D
:102E2300130106013D0135000401120100010001F7
:102E33000001000104010401330133013C01440199
:102E430032013600000100016501000135008101F6
:102E530000010501820183010001030271023001B7
:102E630060021102700201020202020280021002D9
:102E730061023A004100630273027202620243027A
:102E830000021302380000020002040212020002D0
:102E930000020002000204020402370037003C0271
:102EA30044020002390000020002650200023502FA
:102EB30081020002050282028302000203047104FC
:102EC30002046004110470040204020401040204F5
:102ED30010046104000414046304730472046204A0
:102EE300430400041304060400040004040412044D
:102EF30000040004000400045104640000040004FE
:102F030000044404000400040004000465040004F5
:102F130035048104640005040004830400043600BE
:102F23000100060000000F00000000000000000088
:102F33000000000003FFFF00000403FFFF0000FF89
:102F4300FF0FF4010005C4040320000100000B007F
:102F53000000000000000003010F00000220130026
:102F6300A21F0100022002006C1F0300721F040055
:102F7300781F05007E1F06008A1FFFFF000001ACBB
:102F83001506DC1508D6150BE81510281502B21521
:102F930005CA1507B8150C8E150DA015FF00000303
:102FA300EAF5E5D5D5C5B5A59595858575756565A9
:102FB3005555454535352525151505B419E419BA73
:102FC30019C019DE19D219CC19EA19F019F6190228
:102FD3001AC619AE19A81900160F00000B150B021B
:102FE3000002220F320000069E1AB01AB61A7E198A
:102FF300BC1A78198419F81A161B1C1BFE1A0A1B13
:10300300041BB818B218EE18F418E818A0180C0E20
:10301300020B040B0A0708000F00383C3E363B3B0B
:10302300352B432C0001191618161615230300001F
:10303300034948424D181725050230301718192146
:10304300301B1D1F30303016181920231A1C1E3058
:10305300EC1AC21AC81AD41ACE1AD819FC19101BA2
:10306300081A0E1A020402010101010902C418CA56
:1030730018BE18FA18000000000000D018E218006B
:10308300BE040A15000E0004007F00E8030C0028AC
:103093000000000000090308100C0A0308090004DB
:1030A3000001FF1E1E0C0504080FC082C0838A8224
:1030B3008B83E0D2E7F0121ED0024224C082C08389
:1030C3007900123579126290C082C0839003341262
:1030D3005016D083D082C3E09CA3E09D500C1269AC
:1030E30064FAA3E01230F0600109024224FBEA759E
:1030F300F00BA4FAA8F075F00BEBA428FB900336B1
:10310300E02AF8A3E03B8882F583E0540F2274F7AA
:10311300120A6D890812357912361FACF075F00B5F
:10312300E9A42CF9900336E028FEA3E039FF7401EB
:10313300650860067402650870208A828B831236E4
:103143000B1242F274026508701B1234CA12365213
:1031530070138E828F83E4F0800BEA2403FCEB125E
:1031630035ED1235F9EEFAEFFB12268C02425C7450
:10317300F4120A6D12728B79008E828F83E060766F
:10318300890A890B8065E50A75F00BA4FAA8F07526
:10319300F00BE50B1230FD7046E50A75F00BA4F851
:1031A300AAF075F00BE50B1236318E828F83E08522
:1031B3000882850983123713850882850983A31240
:1031C30042F2EE2403FCEF1235F612422B125D0A93
:1031D300AA08AB0912268C790190033412571FE514
:1031E3000A2401F50AE50B3400F50B1234D2E50A83
:1031F3009AE50B9B409002449C74F5120A6DEAFE1B
:10320300EBFF740B1212ED124230750A01EC4D60A4
:103213002BEC1272A7ED1262901242EA7901122688
:1032230056E5084509606F850882850983A31272F4
:10323300957902AA08AB09122656805AE508450972
:10324300602B12629412495E12422C12363C700CAF
:10325300EEFAEFFB122650E9F50A80CBEE2403FACF
:1032630012357470317903EEFAEFFB80CA8E828FC8
:1032730083A3E064FE7003A3E0F4700BEE24030A5F
:103283000A0A123574700CEEFAEFFB122650E9F5B8
:103293000A8003750A00A90A7F03020D2074F7123E
:1032A3000A6D90033412426CEA4B602FEA75F00BFF
:1032B300A4FAA8F075F00BEBA428FBEAFEEBFF12CF
:1032C3001CE490033612426C90033612556460126C
:1032D300EEFCEFFD7900121C488007900336E4F002
:1032E300A3F002425C900334124CCEC3EE98EF99E4
:1032F30022C082C083EC4D60051224C480097C087F
:103303007D007900121C4802422474F6120A6D797A
:1033130000EA4B6018780088081265D7EB126960E1
:1033230060047901780808E8C3940840EA0242FB84
:1033330074F7120A6D74F31210B6ECFEEDFF8518E4
:1033430082851983E4F0041212EDEAF0A3EB125A1A
:103353009074031212EDAC82AD83EEFAEFFB1226EA
:103363003EEEFAEFFB1225BA02425774F7120A6DCA
:1033730074F31210B6ECFEEDFF851882851983E411
:10338300F0EAFCEBFD74031212ED12370C74011218
:1033930012ED1242E68E828F831242F274FE68703F
:1033A3000374FF6960047901800279000242577453
:1033B300F7120A6DEAFEEBFF123410701412341B7D
:1033C3008E828F83E0F4F88A828B83E058F0122692
:1033D3008CA90802425C74F7120A6DEAFEEBFF75D2
:1033E30008008E828F83E06022123410701D123425
:1033F3001B8A828B83E08F838E82F8E058700CE007
:10340300F88A828B83E048F012268C80C412266EE1
:10341300E9F50874016508221272A01236231235E9
:1034230065FAA3E039FB2274F4120A6D8A088B094A
:103433007C007D001234CA1235F912358A12729259
:103443007900850882850983A3E064FE7003A3E005
:10345300F460717E007F008062EEFAEF1230F0605C
:1034630057EEFAEFFBEA75F00BA4FAA8F075F00B30
:10347300EBA428FB900336E02AF50AA3E03BF50B07
:10348300850882850983A31259DE850A82850B8309
:10349300A3E06A7003A3E06B701EE50A2403FAE558
:1034A3000B123575700AE50A2403FCE50B1235F699
:1034B30012357E79011262A6123E691234D2EE9A57
:1034C300EF9B409502449CEA24030A0A0AEB2290EC
:1034D3000334125E7DC32274F3120A6D8A088B09CA
:1034E3008A828B83A3127295123579127292750CAC
:1034F300001234CA12357570547E007F0080491261
:103503003557FAA3E0398A82F583E0540F60361207
:103513003557F50AA3E039F50BE50A2403FCE50B5F
:103523001236003400FB1224BEE964017017850AC9
:1035330082850B83A3125F3EA31242F212357E757E
:103543000C011262A6123E691232E840B2A90C7F46
:1035530005020D20EEF8EFF9E875F00BA4F812352B
:103563006522AAF075F00BE9A42AF9900336E02846
:1035730022EF12364C221272A6EB2212358A126205
:10358300A1EEF0A3EFF022E5081272A7E509227479
:10359300F5120A6DEAFEEBFF8E828F83A3127295FA
:1035A3007C007D00EE24030A0A0AEF1235F9EEFAD5
:1035B300EFFB12266EE9F50A7401650A702912728F
:1035C300A012361FAAF075F00BE912363185088276
:1035D300F58312360B12363C700DE5082403FCE527
:1035E300091235ED1235F90232993400FDEE240348
:1035F300FAEF221236003400FB12263E223400FD7D
:10360300E5082403FAE50922A31236102212361420
:1036130022E0F8A3E0F98E828F83A32212362322BD
:103623003400F583124CD2E875F00BA4F82212355E
:103633006BF508A3E039F50922E8F0A3E9F0E50802
:103643002403FAE50912364C22123652640122345D
:1036530000FB1225BAE92274F3120A6D74E6121004
:10366300B612728B750C01750800750900750A0096
:10367300750B00851882851983E4F0EE2403FCEFB3
:103683003400FD74031212ED12370CE96401702348
:10369300740B1212ED1242EA74011212ED1259E286
:1036A3007003A3E0696051851882851983858208B8
:1036B300858309740D1212EDE4123713740E12127E
:1036C300ED1242F2740D1212EDAA82AB83121300B3
:1036D300E96401700B740D1212ED85820A85830B68
:1036E300780A121025AC08AD09EEFAEFFB12264A50
:1036F3007402121038E9F50CEEFAEFFB121CA2A9C2
:103703000C741A1210380235521239DF12130622C2
:10371300124267124CCE22C082C0837800790080A7
:103723000312380A1234D2E89AE99B5029E8FAE9DD
:10373300FBEA75F00BA4FAACF075F00BEBA42CFBD1
:10374300900336E02AFCA3E03B8C82F583E0540F20
:1037530070CF790080027901024224C082C0839035
:103763003086124D24EC75F012A4FCA8F075F0120B
:10377300EDA428FD79FF7AAF7B0B121C480242248B
:1037830074F7120A6DE9FEEAFF7A007B007800798C
:10379300008028E8FCE9FDEC75F012A4FC85F00834
:1037A30075F012EDA42508123C1FC39E400AE0FCED
:1037B300EFC39C4003123D3E12380A123C1340D320
:1037C30002425CC082C08378007900800312380A09
:1037D3001237FE501F123C23F470F2E875F012A466
:1037E300F8AAF075F012E9A42AF974AF28FA740B59
:1037F30039FB80047A007B00024224903086123C1D
:10380300D4C3E89AE99B22E8240108E93400F922A9
:1038130074F0120A6D74F31210B68A0A8B0B8C0CB7
:103823008D0D8908EC450D6016AA0CAB0D121354CF
:103833008A0E8B0FAE0EAF0FEE4F60030238D1121C
:10384300132A8A0E8B0FA80EA90FE8FEE9FFE84999
:10385300607C9030961239336022740365086006E9
:103863007404650870167A04790312132490309651
:1038730012394A40077A007B0002393090309412A3
:103883003933601B74016508600674026508700FA4
:103893007A02790112132490309412394A50D68552
:1038A30018828519837401F01212ED125D0AAC0CB3
:1038B300AD0D74031212ED1239D8740B1212ED12FE
:1038C30042381246D2E4125CF21217F88004EE4F2B
:1038D300604A780074FF2508C39404500278048E6C
:1038E300828F83125D0A8E828F83A3A3A3A3E5082D
:1038F300F0E88E828F83A3A3A3A3A3125D12120801
:1039030015123CEB8E828F83A3A3A3A3A3A3A3F0DF
:10391300123CE21212C212628A1212B612393840F3
:103923000590110BE4F01216D2EEFAEFFB024CD81D
:10393300125E2C49227A04790012132490308612E5
:103943006946EA98EB99221239637583307582864A
:10395300E493C398F8A3E49399F9C3EA98EB992203
:10396300E493F8740193F92274F2120A6D74F3125A
:1039730010B68A088B09ECFEEDFF750A00EEFAEF2C
:10398300FB1213548A0C8B0DA80CA90DE849603E59
:1039930088828983E065087004A3E06509602F8845
:1039A300828983A3A3A3A3E0C394055021126138A2
:1039B3008518828519837401F01212ED12613CEEB1
:1039C300FCEFFD74031212ED1239D8750A01A90A2E
:1039D300740D0257D61239DF12131222AA82AB8357
:1039E30012263E851882851983AA82AB832274F638
:1039F300120A6D123A2D600FA3A3A3A3E014C3947C
:103A03000450047901800279000242FB74F6120A21
:103A13006D123A2D600FA3A3A3A3E014C394025025
:103A2300047901800279000242FB12134E8A828BD1
:103A330083E58245832274F6120A6D123A2D600BD8
:103A4300A3A3A3A3E070047901800279000242FBDF
:103A5300C082C083EAFCEBFD7A007B00024221C0F6
:103A630082C0837C007D0002422174F4120A6D74CB
:103A7300F31210B6EAFEEBFF8C0A8D0BC3EC94F83D
:103A8300ED94FF4007EE4F7003023B267508007567
:103A93000900802E8518828519837401F0123E91E6
:103AA3001212ED123E9F601374031212EDAC82AD3D
:103AB30083EEFAEFFB1224BEE97049E508240112F4
:103AC3003CBF903086E4125E34E50898E5099950CE
:103AD30052E50875F012A4F8AAF075F012E509A4EE
:103AE3002AF912697960D4EE4F70A974FF650A70E0
:103AF3000474FF650B60C4123E81650A7004A3E081
:103B0300650B70B7E50875F012A4F508A8F075F019
:103B130012E509A428F50974AF2508FA740B3509D1
:103B2300FB80047A007B0002449774F4120A6D74DC
:103B3300F31210B67508001213548A0A8B0BAE0ADF
:103B4300AF0BEE4F602A85188285198374011242E8
:103B530061F8A3E0F9740B1212ED12437512259C60
:103B63007C127D0079FFEEFAEFFB121C4875080109
:103B7300123938500990110B7401F01216D2A908AA
:103B830002449774F7120A6DE9FE74FE6A700374B7
:103B9300FF6B780079007005805212380A123C13CB
:103BA300504AE8FCE9FDEC75F012A4FCAFF075F0A7
:103BB30012EDA42F123C1FF460E0E8FCE9FDEC7564
:103BC300F012A4FC75F012EDA42FFD74AF2CF58256
:103BD300740B3DF583E06A7003A3E06B70BC80094E
:103BE300123C2314C39404401712380A1237FE50B0
:103BF30018EE70EC123C2364016005E0640370E985
:103C0300123E72FAA3E0FB80047AFE7BFF02425C61
:103C1300903086124D28C3E89CE99D22123D732201
:103C2300E8FAE9FBEA75F012A4FAACF075F012EBCE
:103C3300A42CFB74B32AF582740B3BF583E02212A8
:103C43001366024224C082C083790180F274F012A9
:103C53000A6D8A0A8B0B7A0479011213248A0C8B5E
:103C63000DEA450D603EEAC333FAEB33FB121CE465
:103C73008A088B09AE08AF09EE4F60237AFE7BFFFB
:103C830012136C74FE6A700374FF6B601B850882E9
:103C930085098312426CE5082402123CBF80E1755A
:103CA3000C0080047E007F00850A82850B83E50C6F
:103CB300F0EEFAEFFB024CDDE5082407F508E50911
:103CC3003400F50922903086124D28C3EA9CEB9DFF
:103CD30022E493FA740193FB22121C3C7403221214
:103CE300629BE4F09089F822E88E828F83A3A3A3DA
:103CF300A3A3A3A3A3123D0D7401123D0DA3F0EEE4
:103D0300241012629EE4F0A3F0221246DEA3A3A3C2
:103D130022C082C0837A007B00800419123D3E12C8
:103D23003CC85010123D5DC3940550F0E970EC128D
:103D33003D4780047A007B00024224EA24010AEB17
:103D43003400FB22EA75F012A4FA75F012EBA428F2
:103D5300FB74AF2AFA740B3BFB22EAFCEBFDEC7518
:103D6300F012A4FCA8F075F012EDA428123D732202
:103D7300FD74B32CF582740B3DF583E02274F712C6
:103D83000A6D74F31210B67E007F00023E25E5082B
:103D930075F017A4F8A9F0126BDAFAA3E0FBEEF8BA
:103DA300EFF9E875F012A4F8ACF075F012E9A42C61
:103DB300123E806A7003A3E06B603FE50875F0175D
:103DC300A4F8AAF0EA126BD9F8A3E0F9740112126D
:103DD300EDE0687003A3E0696020E50875F017A4BF
:103DE300F8EAF9742B28FC740D39FD74031212EDF3
:103DF300AA82AB831224BEE96014E50875F017A408
:103E0300F8A9F0742928FA740D39FB12180405086F
:103E130090309BE493F8E508C3985003023D911258
:103E23003E69903086126F205039EEF8EFF9123E5A
:103E330072F47003A3E0F460E68518828519837435
:103E430001F0EEF8EFF9E875F012A4F875F012E955
:103E5300A42AF9123E911212ED123E9F60C1750819
:103E63000080AD024257EE24010EEF3400FF22E83A
:103E730075F012A4F8AAF075F012E9A42AF9123E1B
:103E8300852274AF28F582740B39F583E02274B16F
:103E930028F582740B39124CCC740B22E8F0A3E999
:103EA30012437D12130CE922C082C08390033D7438
:103EB300C4F0A37415F090033F74BEF0A37415F01F
:103EC30090034374DEF0A37413F002422474F712D8
:103ED3000A6DEAFEEBFF900377E06408601BE06481
:103EE3000460168E828F83E054036401704812428B
:103EF3002B1247D3E06406703D8E828F83A3A3E029
:103F030064FE7003A3E0F4602D8E828F83A3A3125B
:103F130042E6900368E0687003A3E069700BEE2447
:103F230015F582EF1269606008121672E9F50880D0
:103F33000812167880F67508C2EEFAEFFB121CEA37
:103F43000233D474F4120A6D8A088B098A828B8334
:103F5300E0F8A3E0FAE82AFAE43400FB121CE48A4E
:103F63000A8B0BAE0AAF0BEE4F606385088285099F
:103F730083E0FC7D007900121C488E828F83A3A30B
:103F83001272951216B48E828F83A3A3A3A3124237
:103F93006C850882850983E0F8EE28F8EF34001277
:103FA30042EE850882850983A3E0C0E0EE240D126A
:103FB300628DD0E0F01216C6EE240E12628DE91265
:103FC300593FE0C0E0EE241112628DD0E0F0EEFA2A
:103FD300EFFB02449C74F6120A6D74EB1210B6EAFE
:103FE300FEEBFF125561600302407C7A077B0012EF
:103FF3001CE490033912426C12556160788E828FF3
:10400300831212C290033A1247D61212B612715992
:10401300C0E0124088D0E0F0EE2405FAEF3400FB54
:104023008A088B098A82F583E0C0E0124083D0E0DE
:10403300124493E0C0E0124083A3D0E01242D812AE
:1040430012C28518828519831212B688828983E089
:10405300C0E074051212EDD0E0F085088285098373
:10406300E0C0E074041212EDD0E0F074071212ED18
:104073001241BE800679108002790174150242F85C
:10408300124088A322900339E0FAA3E0F5838A82E1
:10409300A3A3A3A322C082C083125561600D900322
:1040A30039125E6B900339E4F0A3F01215E2121794
:1040B300A402422474F0120A6D74EB1210B6ECFEE3
:1040C300EDFF890874251212ED780C12128B7429F6
:1040D3001212EDE0F9742A1212EDE0FC742B1212A5
:1040E300EDE0FD740F697005740F6C60129011643C
:1040F300E06402700579C10241B9E9C39C40F690BE
:104103000378780C12125EE50890037EF0E99003C1
:104113007CF0ECA3F0ED90037FF074FF6A700374FE
:10412300FF6B701D90116FE0F47003A3E0F4700552
:10413300121C5A800C90116F124241E8F0A3E980DF
:1041430007900375EAF0A3EBF0EE4F6017EEFAEF7A
:10415300FB121864E96401700BEEFCEFFD7A897BB6
:10416300031224C4900368E4F0A3F090036BF0A35C
:10417300F0900388F0901164E06402700890037C6F
:10418300740FF0A3F09003777405F0141212EDE4AA
:10419300F09003781212C28518828519831212B621
:1041A30090037EE0C0E074051212EDD0E0F07407D6
:1041B3001212ED1241BE7415024CDAE412437D1261
:1041C30024EE22C082C083900338E07003121F9C48
:1041D3001213AE804CC082C083900338E090110A62
:1041E3007004E4F0802D7401F0900338E0F4602350
:1041F3007C41E0C394415002E0FCECF8E0C398F04A
:10420300EC75F0E8A4CCA8F075F003A428FD7A803F
:10421300124D307A0A7B1179411224DC8003121388
:104223005AD083D082020FEAEE12629C22E0F50894
:10423300A3E0F5092212423C22123614A322124CA7
:10424300CE9003752274F7120A6DEB90037FF01280
:1042530015D08005740D1210387F01020D20124213
:1042630067A3E0221242D8A322EAF0A3EBF0227460
:10427300F7120A6D74F81210B6EAFEEBFF7900909C
:104283000377E06408704485188285198374FDF010
:10429300A374FFF01216AE74021212ED12426C7484
:1042A300051212EDE4124267E0C0E074041212ED4D
:1042B300D0E01242D3C0E074061212EDD0E0F074E5
:1042C300071212EDE41243791216F07408024259F0
:1042D3001242D8E022F08E828F8322F085188285E5
:1042E300198322124CCE22E0F8A3E0F912629BE874
:1042F300F0A3E9F0221210387F02020D20C082C021
:1043030083900349746EF0A37414F09003EF744A1E
:10431300F0A37417F090034D74A4F0A37414F090F9
:10432300034F746EF0A37414F090035174AAF0A3B6
:104333007414F002422474F4120A6D74F91210B664
:104343008A088B098C0A8D0B851882851983780856
:1043530012125E74041212EDE9F074051212EDE408
:10436300F074061212EDE4124379121396740702E5
:104373004499E8F0A3E912437D221242DEAA82ABFC
:10438300832274F4120A6D8A088B098A828B831242
:1043930062A9EE4F700302449190031212556460B8
:1043A300158A828B83A3A3E0F9EEFAEFFB90031344
:1043B3001247D612270F8E828F83A3A3A3A3A3A38F
:1043C300A3A3A3E0640270748E828F83A3A3A3A329
:1043D300A3A3E05402700302446385088285098322
:1043E300A3A3E064E960798E828F83A3A3A3A3A32D
:1043F300A3A3A3A3A3E07014901167E0048E828F9C
:1044030083A3A3A3A3A3A3A3A3A3A3F08E828F83B6
:10441300A3A3A3A3A3A3A3A3A3A3E014124493A3BB
:10442300A3A37404F0901168125CE4E8F0A3E9120A
:104433006DBD8B0BEA450B700312679B8E828F83D6
:10444300A3A3A3A3A3A3A3A3A3E0640260128E82E6
:104453008F83A3A3A3A3A3A3A3A3A3E06406702EA4
:104463008E828F83A3A3A3A3A3A3E0A2E0501F85FF
:104473000882850983A3A3E0F9EEFAEFFB1225F086
:104483008E828F83A3A3A3A3A3A3E054FEF080098A
:104493001246DA22740D1210387F04020D2074ECD8
:1044A300120A6D74DD1210B6EAFEEBFF8C088D095B
:1044B30074371212ED780C12128B750A0074051200
:1044C30012EDAC82AD8312257274121212EDE070FC
:1044D3000874151212EDE0602074051212EDE0A2CB
:1044E300E6501E8E828F83A3A3A3A3A3A3A3A3A398
:1044F3001259DE121726E9600879031224AC02462A
:10450300C074051212EDE0540C64047005750B01C0
:104513008003750B00E0A2E55035750A01E50BA297
:10452300E0402C1216B48A108B11A810A911124264
:104533002BE0687003A3E069601574051212ED1295
:10454300729C1259DA1225FCE96004790480AC7478
:10455300051212EDE0A2E6502274061212EDE054A9
:1045630003701874051212EDE0540C640C600CE037
:10457300540C640860057510018003751000740500
:104583001212EDE05403F8740268700C12729C125C
:1045930059DA1225600246C0740168703AE510A228
:1045A300E050031246C874051212EDA882A9837461
:1045B300031212EDE8F0A3E9124CC28518828519A3
:1045C300831246D2E0C0E074021212EDD0E012432F
:1045D300791226E00246C0E860030246C090035FFA
:1045E300E0640170108E828F83A3A3A3A3A3A3E02F
:1045F300700302454E74221212ED7402124CC274FF
:104603001A1212ED1242F2E510A2E05008740512DC
:1046130012ED1246C8E50BA2E0506AEE240FF582B4
:10462300EF126960C0E074171212EDD0E0F090034E
:104633001412556470030246C01216B48A128B1307
:10464300A812A913741A1212EDE0687003A3E069AB
:10465300706B780C12101D780A121029780812104A
:1046630025A910740C1212EDAC82AD8374211212C1
:10467300EDAA82AB839003141247D312270F74075A
:104683001210388038780C12101D780A121029780D
:1046930008121025900375120E20EE2412F582EFF6
:1046A30012668E74231212EDAC82AD83740E121255
:1046B300EDAA82AB831225E4740912103874231215
:1046C3001038026D8812729C125E7912256C22E8F2
:1046D300F0A3E91246DA221246DE22F08E828F839D
:1046E300A3A3A3A3A3A32274F7120A6D121E880225
:1046F300425C74F7120A6D121E8E02425C74F7124A
:104703000A6D121E9A02425CC082C083121E94027A
:10471300422474F7120A6D121EA002425C74F7124F
:104723000A6D74091212EDE0F508780812102912C7
:104733001EAC7401024259C082C083121EB80242E9
:1047430024C082C083121EBE02422474F7120A6D73
:10475300121EC402425C74F7120A6DEAFEEBFF8973
:104763000874016508701479001214E69030A6E409
:1047730093FC7900EEFAEFFB12145C02425C74F4D2
:10478300120A6D74F91210B6E9FE8A088B098C0AB5
:104793008D0B74131212ED1259DE9006221255641A
:1047A3006027EE851882851983F074011212ED7863
:1047B3000812125EEAF8EBF974051212ED12437552
:1047C3009006221247D312270F024370FB90034B2C
:1047D300E0F8A3E0F583888222C082C083121EF42E
:1047E30002422474F7120A6D90110DE0F97E0080E5
:1047F3000B12694C540D64017001190E1249E050FB
:1048030003E970ED02425C74F7120A6D90110EE039
:10481300F97E00800B12694C548D64817001190E6E
:104823001249E05003E970ED02425C74F2120A6D22
:10483300890BE975F006A4240CF508E5F0123CC3D6
:104843008A0CE508250CFAE5093400FB121CE48AFE
:104853000C8B0DAE0CAF0DEE4F6027AC08AD097994
:1048630000121C4812422BE50BF0EE2508F8EF3539
:1048730009F98E828F83A3A3A3A3A3A3A3A3A31244
:1048830042F2EEFAEFFB0257D974F6120A6DEAFE12
:10489300EBFF12143890110CE0F8E9C3984009902B
:1048A30003451259DE12143EEE2402F8EF125FEEB6
:1048B300900347125EA8900347E004F0EEFAEFFB83
:1048C300121444850882850983E00264A4C082C06F
:1048D3008379009003458001091259DE8A828B8314
:1048E300E582458370F202422474F7120A6DEAFEF0
:1048F300EBFFEE4F6056900345125564604E88827D
:1049030089837A007B00EE65827003EF6583600F15
:10491300AA82AB83124952E5824583602F80E790D8
:10492300034512495E687002EF698E828F837008B7
:104933001242E69003458003126D9A1242F2EEFA98
:10494300EFFB1226B0EEFAEFFB121CEA02425C12F6
:10495300495622124CD28882898322124CCEEE22EF
:10496300C082C08390034580048882898312556482
:10497300600B88828983125016EC4D70EC8A828B0F
:1049830083E4F0A3F0E8496006888289838003907A
:10499300034512426C02422474F7120A6D900345D8
:1049A30080048A828B831249DB4B60257E00800161
:1049B3000E1249E050ECEE75F006A4FCADF0EA2CC3
:1049C300FCEB3DFDEC2410F582ED124A3070E180E2
:1049D300047A007B0002425C125E7DEA22124A39AD
:1049E300EEC3982274F7120A6D7D0080010D124AFE
:1049F30035EDC3985034ED75F006A4FEA8F0E8FF3A
:104A0300EA2EFEEB3FFFEE2410F582EF124A3070E0
:104A1300DCED75F006A4FEE8FFEA2EFAEB3FFBEAB5
:104A23002411F582EB1269604CF002425C12696C4E
:104A33006922124A39221272A6EB3400F583E0F898
:104A43002274F6120A6D12155E7A007B008025EA45
:104A5300F8EBF9E875F006A4F8ACF075F006E9A4F4
:104A63002C125E52127167A3E4125F48F0A3127115
:104A73006D1272E490309012394240D37A007B0079
:104A8300801C8A088B09740378081211E5125906F1
:104A9300A374FEF0A304125D28A3E41272E4903021
:104AA3009A124AE340DC7A007B00801D8A088B0956
:104AB300740378081211E574511265D87410126EDC
:104AC3001F74FEF0A3041272E49030A0124AE34074
:104AD300DB9030A4E493900353F0124AED0242FBBF
:104AE300E493F8C3EA98EB9400227CE87D037A1000
:104AF3007B009003C2E0F9121D9E2274F0120A6D2E
:104B030074F51210B68A088B09890A8C0BE9A2E0A6
:104B130050147508FC7509FFA2E15005D2E4024B5D
:104B2300C0D2E3024BC01257C57003A3E0697005FE
:104B33007900024C8DAC0A7902AA08AB0912153A26
:104B4300E960EDE50AF50C780C12102979027CFE78
:104B53007DFFAA08AB09125540121038E960030221
:104B63004C8BE50AC2E5F50A9003B5E07051E50AFE
:104B7300A2E6404B74031212EDAC82AD83AA08ABDC
:104B8300091225B4E97032124E618A0C8B0DA80C00
:104B9300A90DE8FEE9FFE8496025EE24020A0AEFC1
:104BA300123652601AEE2402FCEF3400FD74031235
:104BB30012EDAA82AB831224C4E50AD2E5F50A906A
:104BC3000348E0F50C900368E0F50EA3E0F50F78D9
:104BD3000E1210257D017C00900348E0F9AA0EAB6C
:104BE3000F1214F27402121038E9F8900348E0042B
:104BF300F0E86003024C8BE50AA2E55004740E80D2
:104C0300027406C0E074011212EDD0E01262BA8A97
:104C13000E8B0FAE0EAF0FEE4F6069124CAB124C02
:104C2300C2888289837401F07478550AA31272AC26
:104C3300E50C1272ACA3E508F0E509124C9AE4F016
:104C4300E50AA2E5500F74031212EDAC82AD83E8BE
:104C53002406124C918E828F83A3A374FDF0A37458
:104C6300FFF0E50B60159030A7E493F8E50BC398CC
:104C73005009EE241312628DE50BF0EEFAEFFB12EE
:104C8300138A80067910800279C7740B8049FAE988
:104C93003400FB1224C42288828983A3A3A3A31212
:104CA3004CA622126021A322EE241712629E7401E5
:104CB300F01216AEEE241A12629EEAF0A3EB22F073
:104CC3001272A03400124CCC22F583124CD222E093
:104CD300F8A3E0F922740D1210387F08020D207436
:104CE300F6120A6D7A007B101267A860089003D44D
:104CF3007401F080299006C3E06401901165700689
:104D0300E0FC79018004E0FC79037A007B00121453
:104D13005C90308E124D247A007B10124D32024289
:104D2300FB124D2822E493FC740193FD227B009037
:104D330003C2E0F9121D982274EC120A6D8A088BE3
:104D4300098C0C8D0D890E74141212ED12571F74F9
:104D5300161212EDE0F510A3E0F511121726E96023
:104D6300077AFF7BFF024E5E901164E064026003EA
:104D7300024E517900AA08AB09121540A90E12156B
:104D8300348A128B13AE12AF13EE4F7003024E39F7
:104D93008E828F83A3A3A3A3A3E064018E828F8358
:104DA300A3A370691259DE8E828F83A3A3A3A3A347
:104DB300A3E0541860439030A5E4938E828F83A3BD
:104DC300A3A3A3F0EA650C7003EB650D6014EA6519
:104DD3000A7003EB650B600AEA65107003EB65115B
:104DE300701F7810121025AC0AAD0BAA0CAB0D1274
:104DF300182274021210388008900367126792A376
:104E0300F074FE6A700374FF6B601D804EA3A3A34E
:104E1300E0640360298E828F83A3A3A3A3A3E0642A
:104E23000470057AFE024D668E828F83A3A3A3A32B
:104E3300A3E0640270089003B4E064027010124EA1
:104E4300618B0BEA450B6006AA08AB09800DAA0823
:104E5300AB099003491247D312270F026D889003C1
:104E6300751255461217E62274F7120A6DEAFEEB25
:104E7300FF12133CE9700AEEFAEFFB121348E960E4
:104E830006EEFAEFFB80047AFE7BFF02425C74F0CD
:104E9300120A6D8A0A8B0B8C0E8D0F890975080017
:104EA300121726E979006003025008AA0AAB0B1215
:104EB3001540A9091215348A0C8B0DAE0CAF0DEEFB
:104EC3004F60198E828F83A3A3A3A3A3E064027010
:104ED300559003B4E064027003025006AA0AAB0BB8
:104EE30090034F1247D312270F12134E8A0C8B0DC8
:104EF300A80CA90DE849700302500688828983A390
:104F0300A3A3A3A3E0A2E04003025006750C01A2F1
:104F1300E150687901AC0AAD0BAA0EAB0F12148CE9
:104F2300E970640250068E828F83A3A3A3A3A3E038
:104F330064037005750C0280528E828F83A3A3A332
:104F4300A3A3E06401600302500690037512501698
:104F53008E828F8312536B8A0C8B0DA80CA90DE8DC
:104F63004960D190309EE493FA88828983E0C39AA2
:104F730050C2A3E0600302500680B988828983A3EC
:104F8300A3A3A3A3D2E1F0EE4F603A8E828F83A353
:104F9300A3A3A3A3A3E05418602B7508018E828FEB
:104FA30083A3A3120E20750CFE750DFF780C12104F
:104FB300257900AC0AAD0BAA0EAB0F12155274047F
:104FC300121038803E900368E0650E7004A3E0651C
:104FD3000F70149030A6E493FCA909AA0AAB0B1234
:104FE300145C750801801CA90CAC0AAD0BAA0EABAE
:104FF3000F12148CE9700C750801A909AA0AAB0BEE
:105003001214E6A908024CDDE50C2415F582E50D22
:105013001262A1125CFE2274EA120A6D74F012107D
:10502300B68A0C8B0D8C088D0974261212EDE0F5EF
:1050330014A3E0F5157512069003F5125564602369
:10504300900375125016AA08AB091218108A108B18
:1050530011EA4511600D8A828B83A3E07005790004
:10506300025353E50C241DF50EE50D3400F50F85B1
:105073000E82125550F51388828983A3A3A3E0FA05
:1050830088828983A3A3A3A3E0F9EA2400FEE43979
:10509300FFAA08AB091214EC850E82850F83125305
:1050A3008EE029F50BE50AA2E5500375120E74870D
:1050B300550A70177418550A6418600FE50C241705
:1050C300F582E50D1269606512600779011224AC5F
:1050D300808C530A78C3EE94F8EF94FF501D790047
:1050E300EEFAEFFB12535D601288828983A3A3A3B8
:1050F300A3A3A3E05418600302506178081210259B
:105103007D00125381121038E9F8740368700302AA
:105113005061E860030251CC7418550A70030252BF
:1051230081E50AD2E0F50AA2E45004D2E1F50AA926
:105133000A1259D712535D605388828983A3A3A3AC
:10514300A3A3A3E05418604488828983A3A3A3A3E1
:10515300A3E064017036E5104511603090037512C9
:1051630050168882898312536B8A0E8B0FA80EA95F
:105173000FE849601788828983A3E0600F85108256
:10518300851183A31264AF5003025061E50AF50E43
:10519300780E121029125374121038E9702B7C0008
:1051A3007D0085148285158374FFF0A3F0850C823E
:1051B300850D83A3A3A3A3A3A3A3A3E0600312501A
:1051C3000BA90B1259D7121EB2851482851583E0E1
:1051D300F47003A3E0F460399003B4E06402700355
:1051E300025061125710E0FAA3E01247CF12270FC3
:1051F300EA65087003EB65096003025061EEFAEF9C
:105203001247CF12270F851482851583EAF0A3EB8B
:10521300F078081210257D01125381121038A90A63
:10522300EEFAEFFB1215408A088B09A808A909902A
:105233000368E0687003A3E0696003025344EEFA75
:10524300EFFB12134E8A088B09A808A909E84960E5
:105253006E88828983A3A3A3A3E06401600D88827F
:105263008983A3A3A3A3E0640270548518828519DC
:1052730083AC82AD83EEFAEFFB1225B48055900325
:1052830061E0600FE50AF50E780E121029125374CF
:10529300121038E50AF50E780E12102979027CFEF9
:1052A3007DFFEEFAEFFB125540121038E96003025E
:1052B30051CC85148285158374FFF0A30252131217
:1052C30016AEEAFCEBFD851882851983AA82AB83AF
:1052D3001224C4850C82850D83A3A3A3A3A3A3A334
:1052E300A3E06401700F12500B74081212EDAA822E
:1052F300AB831224C412551A1261264430F5087880
:105303000812102974011212ED8582088583097829
:1053130008121025740B1212ED8582088583097813
:1053230008121025E513F50878081210297900EE04
:10533300FCEFFD1259D7121486740612103802506E
:105343006112551A12629012538EE50BF01216C6B3
:1053530074101210387F0E020D201215348A0E8B32
:105363000FA80EA90FE84922A3A3125E7D121810FD
:10537300227901AC08AD09125E7212554022AC0BC2
:10538300A913125E721214F274022212612EA3A3E5
:10539300A3A32274F0120A6D74F01210B68A0C8B58
:1053A3000DECFAEDFB750F089003F51255646014CC
:1053B3001264A88A828B83E58245836007A3E07029
:1053C3000302551512551A3400125550F50B8882F5
:1053D3008983125523E0FBEC2400FEE43BFF888223
:1053E3008983A3A3125523A3A3E0FBECF508E43BB5
:1053F300F50988828983A3A3A3A3A3A3A3E0F50E3E
:10540300E50AA2E45003750F10A2E55006740825BF
:105413000FF50F748F550A700FE50C2417F582E50D
:105423000D126960650F600879011224AC025515ED
:10543300530A707800E50AA2E4502212551A126941
:10544300602408FCA3E03400FD74081212EDAA8264
:10545300AB831224C47808E50AC2E4F50AE50AA27C
:10546300E5502812551A12696028F8A3E03400F9B0
:10547300E82408FCE93400FD851882851983AA8293
:10548300AB831224C4E50AC2E5F50AAC0EA90BEE00
:10549300FAEFFB1214F8E9F8740368607590036877
:1054A300E06E7003A3E06F605EE87054E50AF50FE9
:1054B300780F121029125531121038E97054780AF6
:1054C30012102974011212ED85820C85830D780C5C
:1054D300121025740B1212ED85820C85830D780C46
:1054E300121025E50BF50A780A121029A90EAC084B
:1054F300AD09EEFAEFFB121486740612103880120F
:10550300740468700D80B7780A121029125531128D
:1055130010387410024CDAE50C241DF582E50D22D7
:10552300A3A3A3E0FC88828983A3A3A3A322790175
:105533001257171262A1125546125540221214B087
:10554300740122E0FCA3E0FDAA08AB0922F5831253
:105553004956A3E0F50A88828983A3A3E022900336
:1055630039125ED92274E8120A6D74F51210B6EA84
:10557300FEEBFF8C088D09891474231212EDE0F5FC
:105583000F74241212EDE0F512A3E0F51374261242
:1055930012EDE0F516A3E0F51774281212EDE0F50D
:1055A3000EA90F1214FE8A108B1174011212ED74DE
:1055B30008F0E50EA2E450037410F0E50EA2E550E6
:1055C30004E02408F0851882851983AA82AB83122C
:1055D300170E8A0C8B0DEA450D70030256F7EA2469
:1055E30017F582EB1257091216AEE50C241AF58251
:1055F300E50D12629012426C74031212EDAC82AD8F
:1056030083AA10AB111225B4E9601D12570174036C
:105613001212EDA882A983E50C2418F582E50D1278
:105623006290E8F0A3E98024E50EA2E4501FE510A0
:105633006E7003E5116F7015125701E50C2418F510
:1056430082E50D126290E512F0A3E513F0125710F4
:1056530012571F850A82F5837402F0A3E50E1257D1
:1056630027E50FF0EE850A82850B83A3A3A3F0EF52
:10567300850A82850B83A3A3A3A3125727A3A3A3FE
:10568300E508F0E509850A82850B83A3A3A3A3A3F9
:10569300A3F0AA10AB111214ECE92514850A828534
:1056A3000B83A3A3A3A3A3A3A3F0750800E50EA2F2
:1056B300E45011AC12AD13E50A2408FAE50B124CC1
:1056C30093750808E50EA2E55014AC16AD17E50A6C
:1056D3002508F8E50B3400F9E82408124C91850CF1
:1056E30082850D83A3A3E510F0A3E511F0AA0CAB0B
:1056F3000D12138A740B1210387F10020D20E50C63
:105703002416F582E50D1262A17401F022125717D7
:105713001262A122E50C1272A7E50D22E0F50AA39D
:10572300E0F50B22F0850A82850B83A3A32274F292
:10573300120A6D8A088B09ECFEEDFF890A790012C3
:1057430057C57003A3E069700479018073750B0179
:10575300900368E065087004A3E06509601F750B9A
:1057630000780B121029A90AEEFCEFFDAA08AB0979
:105773001217627401121038E9F50B80417900EEBB
:10578300FAEFFB121534EA4B602B8A828B83A3A3B7
:10579300A3A3A3A3E05418601C7508FE7509FF7842
:1057A300081210258A828B83A3A3120E201270BCC9
:1057B30012103880097901EEFAEFFB12140EA90BCF
:1057C30080141215408A0C8B0DA80CA90D90036848
:1057D300E068221210387F06020D2074F4120A6D5D
:1057E30075089975090E7A10126DC48B0BEA450B77
:1057F3007003124AED900353E014F0700C9030A440
:10580300E493900353F012154C7E007F00806C8567
:105813000882850983A3A3A3A3E06059F46056E536
:10582300082404F582E50912678C7049850882858E
:105833000983A3A3A3A3A3E06403701979028508D2
:1058430082850983125016850882850983A3A312D2
:1058530059DE12148C850882850983A3A3A3A3A30D
:10586300E06401601085088285098374FEF0A30457
:10587300125938E4F0123E69123CBB903092126F19
:1058830020408C7E007F0080391216548E088F09C9
:10589300740378081211E574112508FC7410350996
:1058A300FD7A987B14121642EA4B70DD8E088F093D
:1058B300740378081211E5125906127167E4F012A5
:1058C3003E6990309AE493F8C3EE98EF9400501B2E
:1058D3008E088F09740378081211E512590EE82413
:1058E30007F582E912678C70D680A17E007F008065
:1058F3000A125919600214F0123E69126F1D40F129
:1059030002449C12590E888289832274112508F857
:1059130074103509F922EEF8EFF9E875F006A4F8EA
:10592300AAF075F006E9A42AF974B128F582740F78
:1059330039F583E02212593FA3A3A322F0850882FD
:10594300850983A3A32274F7120A6D74E11210B6BA
:10595300ECFEEDFF750800EE4F60728A828B83E0E8
:10596300241C1267BD12556460638A828B831259AB
:10597300DE851882851983AC82AD83EA241BF58208
:10598300EB12668EEA241CF582EB1259DA12169694
:10599300740B1212ED1259E27003A3E069702E74B6
:1059A300021212EDE064017024741D1212ED12470D
:1059B300D3E064017017741D1212ED1247D5A3A32F
:1059C300E0F88E828F83E0687003750801A908747C
:1059D3001F0242591257173400F583125E7D2212BB
:1059E3003610E0682274F4120A6DE970247900908D
:1059F300034D1247D312270F8A0A8B0BAE0AAF0B44
:105A030074FE6E700374FF6F701A9030A1E493609C
:105A130013790190034D1247D312270F8A0A8B0B78
:105A2300AE0AAF0B1216D2023FD174F6120A6D748E
:105A3300F31210B6121C5A8A088B09AE08AF0990EC
:105A43000368E06E7003A3E06F60E91216BAEA6EB2
:105A53007002EB6F60DEEEFAEFFB121726E970D4EB
:105A6300EE4F60D0851882851983E4F0041212ED9D
:105A7300EEF0A3EF125A90E970BA74FE6E700374DD
:105A8300FF6F60B0EEFAEFFB740D0242F812437D34
:105A930012130022C082C0831216D20242247F0A4C
:105AA300020D2074F2120A6DEAFEEBFF8C0A8D0BD5
:105AB3008908740E1212EDE0F50974FC6E7003741C
:105AC300FF6F700579000257D979001215408A0CCF
:105AD3008B0DAE0CAF0D900368E06E7003A3E06F07
:105AE3007006E509A2E650DCA909126FAA70617974
:105AF300007AFE7BFF126FAA705674185509700363
:105B0300025BDD78007900800312380A903092122C
:105B130038014003025BDDE8FAE9FBEA75F007A40C
:105B2300FAACF075F007EBA42CFB749F2AF5827492
