:020000040000FA
:06000000020A4C0201D5CA
:03002B0002089731
:030033000206B30F
:0300430002074C65
:03004B00021B3560
:03005300020106A1
:03006B00020699F1
:1000830002016A0101FF05030106100610061006AE
:1000930010C20EBC0E06108122000000005B21007E
:1000A3000000000C0000000C0001FFFF0500414CA4
:1000B300442057534E2D73797374656D000000000F
:1000C3000000010280402010102040800101010047
:1000D300AC05000000FD05E80364006400B80102FC
:1000E3000200000002050207051E02051E0A03B8EE
:1000F3000B0201028816021F00E007965118000246
:10010300020612C0E074F21203EEA2AFE433FED291
:10011300AFE5A7FFE5A1F5085F541060061216F6D8
:1001230075A1EFE5085F540860081216FC75A1F786
:10013300802BEFA2E0C0D0E508A2E092F012097391
:10014300158182F05017906198E0F8900AD7E0C3C8
:1001530098A2D265D0335002E8F075A1FEEEA2E07A
:1001630092AF7F0102044DC0E074F21203EEA2AF1E
:10017300E433FED2AF9061A4E0F8759B00E591589B
:10018300540860087591F7121744802AE591585472
:100193001060087591EF12174A801BE8A2E0C0D0E7
:1001A300E591A2E092F0120973158182F05007E005
:1001B300C2E0F012188E9061A3E0F8E5E958540408
:1001C300600E12186475E9FB906193E0A2E640F2B9
:1001D300808BC0E074F21203EEA2AFE433FED2AF21
:1001E3009061A5E0F8E5BF585404600675BFFB12A3
:1001F30018A6020160C3E498F8E499F91202398061
:1002030026C3E49AFAE49BFBE920E7E9120239E406
:1002130098F8E499F922C3E498F8E499F9120239B9
:10022300E498F8E499F9C3E49AFAE49BFB22EB20FF
:10023300E7CFE920E7E0B90010BB0008E88AF084C3
:10024300F8AAF022E4FBC8FA22EB70227B10C83331
:10025300C8C933C9335007C39AC3DBF280069A5027
:10026300012ADBEAC833F4C8C933F4C9FA2275F0AA
:1002730008E4C833C8C933C933C99AC99B5004C9F0
:100283002AC93BD5F0ECFBC833F4C8E4C9FA220809
:100293000808EAC0E0EBC0E086F0E7A4FA18098694
:1002A300F0E7A42AFA180986F0E7A42AFA180986BF
:1002B300F0E7A42AFA1986F0E7A4FBE5F02AFA1975
:1002C3000886F0E7A42BFBE5F03AFA190886F0E775
:1002D300A42BFBE5F03AFA18180986F0E7A4C5F059
:1002E3002BFBE43AFA1908E7C5F0C6A426F6E5F0B5
:1002F3003BFBE43AFA1886F0E7A4F6E5F00826F6A5
:10030300E43B08F6E43A08F6D0E0FBD0E0FA22E456
:10031300CFC0E0E4CEC0E0E4CDC0E0E4CCC0E07503
:10032300F020C3E633F608E633F608E633F608E6CC
:1003330033F6181818EC33FCED33FDEE33FEEF33D0
:10034300FFC3EC9709ED9709EE9709EF9719191970
:10035300400FFFEC97FC09ED97FD09EE97FE191985
:1003630006D5F0BEECF709EDF709EEF709EFF7193B
:100373001919D0E0FCD0E0FDD0E0FED0E0FF22254B
:1003830018C582C0E0E51934FFC583C0E0E518C392
:10039300958224F810AF0885831985821880088513
:1003A3008319858218D2AFCEF0A3E520F0A3780895
:1003B300E608F0A3DEFAEFF0A3E58124FAF8E608F5
:1003C300F0A3E608F0A3E608F0A30808E608F0A304
:1003D300E608F0A315811581D0E0FED0E0F8158181
:1003E30015811581E8C0E0EEC0E022C0D02518C514
:1003F30082C0E0E51934FFC583C0E0E518C39582E8
:1004030024F310AF08858319858218800885831922
:10041300858218D2AFC8F0A3E9F0A3EAF0A3EBF00A
:10042300A37908E709F0A3D8FAECF0A3EDF0A3EE63
:10043300F0A3EFF0A3D0E0F0A3D0E0F0A3D0E0F07E
:10044300A3E520F0A3E5F0F0A322851983851882A4
:10045300E0C0E0A3E0F9A3E0FAA3E0FBA37808E09F
:10046300F608A3DFFAE0FCA3E0FDA3E0FEA3E0FFB0
:10047300A3E0C0E0A3E0C0E0A3E0F5D0A3E0F52053
:10048300A3E0A3F5F010AF088583198582188008CF
:10049300858319858218D2AFD082D083D0E0F8D07B
:1004A300E032120AAEB900030204E7E490030178D4
:1004B3002E790D8002F0A3D8FCD9FA900F2EAA82D0
:1004C300AB83900086788179018015E493A3AC8295
:1004D300AD838A828B83F0A3AA82AB838C828D83C4
:1004E300D8E9D9E77582837583F0740212080F7512
:1004F300822E75831B740012080FE8030875F01031
:100503008E1A8F1B85821F85831E8518828519830A
:10051300E0CEA3E0CF851F82851E83EBC9EAC8ED39
:10052300CBECCAC3E833C8E933C9EA33CAEB33CBEC
:10053300C3EA9EF51DEB9FF51CB35004AB1CAA1D2B
:10054300EC33CCED33CDD5F0DAAE1AAF1B22D0832A
:10055300D082ECC0E0EDC0E0E493A3FCE493A3FD00
:10056300ED4C600D120629EC24FFFCED34FFFD80F9
:10057300EFE493A3FCE493A3FDED4C600D1206F7A7
:10058300EC24FFFCED34FFFD80EFD0E0FDD0E0FC78
:10059300E493A3C0E0E493C0E02285198385188225
:1005A300E0A3FEE0A3F5207808E0A3F608DFFAE075
:1005B300A3FFE0A3C0E0E0A3C0E0E0A3C0E0E0A3AA
:1005C300C0E0E0A3C0E010AF0885821885831980DE
:1005D30008858218858319D2AFD083D0820208158B
:1005E300D083D082E9C0E0E493A3C386F0C5F0953D
:1005F300F0F908E493A386F0C5F095F0700BE4934B
:10060300A3C3994005E9048002A3E475F002A4257D
:1006130082F582E5F03583F583D0E0F9E493A3C056
:10062300E0E493C0E022C0E0C3E49396087401932E
:100633009618400FE4936670080874019366187067
:10064300007019A3A3C3E49396087401939618A3A7
:10065300A3400DD0E0D0E0D0E002058DA3A3A3A377
:10066300A3A3D0E0227404800474028000CCC0E011
:10067300EDC0E0E518C39CCCAD1950011D10AF06C9
:100683008C188D1980068C188D19D2AF120791D052
:10069300E0FDD0E0FC22C0E074F21203EEE589A293
:1006A300E150031215B2758900C2C57F0102044DE2
:1006B300C0E074F21203EEE58BA2E050031215B210
:1006C300758B00C2E880E474028000CCC0E0EDC00A
:1006D300E0E518C39CCCAD1950011D10AF068C1872
:1006E3008D1980068C188D19D2AF12076FD0E0FDDB
:1006F300D0E0FC22C0E0C0F088F0E4936670080804
:1007030074019366187000A8F0A3A3700BD0F0D007
:10071300E0D0E0D0E002058DA3A3D0F0D0E022D05A
:1007230083D082CCC0E0E493A360061207D1147097
:10073300FAE493A360061208E11470FAD0E0FCE433
:1007430093A3C0E0E493C0E022C0E074F21203EE8E
:10075300A2AFE433FED2AFC2C0E5D1A2E45003128C
:100763001672EEA2E092AF7F0102044DCAC0E0E42C
:1007730093A3C582CCC582C583CDC583F0A3C582AF
:10078300CCC582C583CDC583DAE5D0E0CA22CAC011
:10079300E0E0A3C582CCC582C583CDC583F0A3C5E4
:1007A30082CCC582C583CDC583DAE6D0E0CA227088
:1007B30009080808226016181818C6C333C608C6E5
:1007C30033C608C633C608C633C6D5E0EA22C0E03E
:1007D300E493A3D39C5010E493A3C39C400AD0E0BA
:1007E300D0E0D0E002073FA3A3A3D0E022C008C318
:1007F300E096F50808A3E096420808A3E0964208AD
:1008030008A3E09645087001D3D00822C09FF59F46
:10081300E473D09F22D083D082C09FE493C0E0745E
:100823000193C0E0740293F59F222518F58210AF5F
:1008330008F518400215198008F51840021519D259
:10084300AF851983227404800A74038006740280BE
:10085300027401C0E0F40412082DD0E0120A8922C8
:10086300C0D0251810AF08F518500205198008F5F7
:100873001850020519D2AFD0D022BB0102E722C023
:1008830082C08389828A83BB0003E08002E493D021
:1008930083D08222C0E0C0D0E8C0E0E5A8D2AFC2D6
:1008A300C7A2E792AFD0E0F8D0D0D0E0326016080C
:1008B3000808C6C313C618C613C618C613C618C677
:1008C30013C6D5E0EA22C3E0C696F608A3E0C696AF
:1008D300F608A3E0C696F608A3E0C696F622C0E0A3
:1008E300E493A36C7009D0E0D0E0D0E002073FA30B
:1008F300A3D0E022251810AF08F51840021519807F
:1009030008F51840021519D2AF22E76670100809DE
:10091300E766700A0809E76670040809E76622E0DB
:1009230066701008A3E066700A08A3E06670040806
:10093300A3E06622C3E09608A3E09608A3E0960826
:10094300A3E096A2D265D03322C3E096F008A3E0D9
:1009530096F008A3E096F008A3E096F022E026F0D4
:1009630008A3E036F008A3E036F008A3E036F0224F
:10097300C0E0E8C0E0E58124FCF8E6A2E7D0E0F8B7
:10098300D0E022E647F60809E647F60809E647F607
:100993000809E647F622E026F608A3E036F608A3A0
:1009A300E036F608A3E036F622E627F60809E6372E
:1009B300F60809E637F60809E637F622E657F60899
:1009C30009E657F60809E657F60809E657F622E05E
:1009D30056F608A3E056F608A3E056F608A3E05639
:1009E300F622E056F008A3E056F008A3E056F0081C
:1009F300A3E056F022700422600D18C6C333C60864
:100A0300C633C6D5E0F41822E4C396F608E496F696
:100A130008E496F608E496F622C6F4C608C6F4C6B9
:100A230008C6F4C608C6F4C622C3E7960809E796C3
:100A33000809E7960809E79622C3E09608A3E0961B
:100A430008A3E09608A3E0962275D000758140754F
:100A53001801751903000204A5E0F608A3E0F608DF
:100A6300A3E0F608A3E0F622600C08C6C313C61879
:100A7300C613C6D5E0F422E6F008A3E6F008A3E621
:100A8300F008A3E6F022CAC0E0E6F0A308DAFAD041
:100A9300E0FA22E0FAA3E0FBA3E0FCA3E0FD22EAF4
:100AA300F0A3EBF0A3ECF0A3EDF022E5C754F84478
:100AB30001F5C77901222518F582E43519F583225A
:100AC300C2AF75D69F02000022120818F6B50112B4
:100AD300081849B701120818ECB70112081824B90D
:100AE3000112081842B901120818E65B001208182F
:100AF300F85B001208184A5C00120818AB5C00127D
:100B03000818355D00120818D95D001208182D5E0B
:100B130000120818465E001208186C5E00120818CE
:100B2300A75E00120818EB5E00120818125F00128D
:100B33000818635F00120818136000120818CB60CE
:100B43000012081893610012081870620012081846
:100B5300F6620012081805630012081810630012E9
:100B630008181964001208182A6400120818A064EF
:100B7300001208183265001208188A650012081856
:100B8300506600120818816600120818C666001223
:100B93000818D36600120818676800120818CA6993
:100BA30000120818E66A00120818506D001208189F
:100BB3005B6D00120818656D00120818706D001245
:100BC30008187A6D00120818846D001208188F6DCA
:100BD300001208189A6D00120818CB6D001208183D
:100BE300EF6D00120818136E00120818786E0012C9
:100BF3000818BC6E00120818D86E001208184F6F40
:100C030000120818876F00120818D36F0012081813
:100C1300307000120818127200120818987200122D
:100C23000818697300120818797600120818CE762E
:100C330000120818FA7600120818467800120818ED
:100C4300967800120818EB7800120818EC79001255
:100C53000818847A00120818067B00120818A67B6D
:100C6300001208183124001208186A240012081808
:100C7300442600120818832600120818CD260012F5
:100C83000818722700120818D1270012081805281F
:100C9300001208187228001208188F290012081869
:100CA300972A001208182D2B00120818742E001210
:100CB30008181D2F00120818F92F001208185A30AF
:100CC30000120818773100120818A133001208180F
:100CD30058340012081862340012081895340012B0
:100CE30008185C3500120818F735001208185C362E
:100CF30000120818853600120818A73600120818C3
:100D0300D63800120818AD3900120818F13900124C
:100D130008185E3A00120818193B001208184B3BDA
:100D2300001208188F3B00120818C23B0012081863
:100D3300173C001208186C3C00120818003D001202
:100D43000818623D00120818CA3D00120818733FC4
:100D5300001208185B40001208189D410012081881
:100D6300CB43001208188B4400120818BA4600122D
:100D730008185D47001208189B47001208184749D6
:100D8300001208185B490012081865490012081878
:100D93008F49001208189B4900120818BA4900121B
:100DA3000818714A00120818B04A00120818BA4A03
:100DB300001208186E4B001208186D4C0012081828
:100DC300664D00120818034E00120818A54E0012B3
:100DD3000818BC4E00120818F34E00120818114FE1
:100DE30000120818554F001208187A4F00120818FD
:100DF300605000120818CC50001208184651001217
:100E03000818555200120818945300120818F65384
:100E130000120818B05400120818D354001208180E
:100E2300A75500120818F25500120818345600127C
:100E330008188B5600120818C25600120818F056EC
:100E4300001208182957001208184E5700120818E4
:100E5300D65700120818F95900120818585A0012E8
:100E63000818EC5A00120818585B00120818AC5BFB
:100E730000120818C39103120818029203120818EB
:100E830087BA01120818E1BA011208183DBB011212
:100E9300081889BB01120818A4BB01120818D5BB96
:100EA30001120818F2BB01120818FEBB0112081840
:100EB30072BD011208188BBD01120818F2BD011290
:100EC300081805BE0112081813BE01120818C7BE80
:100ED30001120818ABBF01120818B1C0011208189B
:100EE30037C10112081841C101120818AEC101121D
:100EF3000818C5C101120818F7C10112081830C239
:100F0300011208185AC201120818BBC201120818AC
:100F1300DBC201120818F9C2011208183FC30112FB
:100F2300081865C401120818B2C401120818E1C4F4
:100F33000112081857C5011208187FC501120818B5
:100F4300B8C501120818C6C5011208181EC6011239
:100F530008186DC601120818ACC601120818DCC6C1
:100F63000112081808C70112081813C7011208183C
:100F730031C701120818F3C701120818FDC701127F
:100F8300081838C8011208184EC80112081857C8A3
:100F930001120818ACC801120818C0C801120818B9
:100FA300CEC901120818E1C901120818F6C90112C5
:100FB300081898CA011208181BCB01120818D9CBBC
:100FC30001120818E4CB011208180ACD01120818FF
:100FD30026CD0112081878CD01120818B7CD0112D9
:100FE3000818CCCD011208180ECE011208185BD0D8
:100FF30001120818D9D0011208184CD1011208188F
:101003006ED30112081886D30112081889D301126E
:10101300081895D301120818A9D301120818B1D3DF
:1010230001120818E4D30112081894D40112081805
:101033000AD5011208187DD50112081831D60112FC
:101043000818E6D60112081805D701120818A5D703
:1010530001120818B1D701120818DCD701120818B9
:10106300DFD70112081849D80112081871D90112E3
:10107300081849DA01120818D4DA01120818EDDB4E
:1010830001120818AADC01120818E3DC011208187F
:1010930014DD01120818B4DD01120818E4DD011291
:1010A3000818BFDE0112081858DF01120818E3DF21
:1010B3000112081894E00112081816E10112081829
:1010C30048E10112081889E10112081848F50112D4
:1010D3000818ADF501120818EAF50112081839F6D7
:1010E300011208184FF80112081832FA01120818F1
:1010F3009CFD01120818D7FD01120818F9FD011211
:1011030008185CFE0112081890FE01120818B3FEBD
:1011130001120818E0FE011208183CFF011208181A
:10112300309C02120818AE9C02120818E49C0212AA
:101133000818509D02120818C39E02120818DF9E59
:1011430002120818249F02120818B29F02120818EC
:101153000BA00212081838A1021208184AA20212A0
:101163000818A7A20212081813A30212081874A3DE
:1011730002120818B5A30212081862A40212081872
:1011830074A5021208189FA502120818EAA50212F4
:10119300081831A602120818C3A6021208187EA75F
:1011A30002120818C7C502120818D1C5021208187E
:1011B3001DC6021208188BC602120818ACC602120A
:1011C30008185CC702120818F0C902120818F9C9F6
:1011D300021208184CCA0212081875CA021208181B
:1011E300DCCA021208186DCB02120818AFCB021228
:1011F3000818F9CB0212081858CC02120818E9CCC7
:101203000212081828CD0212081867CD0212081816
:101213009CCD02120818AECD02120818C0CD0212DE
:101223000818DFCD02120818E8CD02120818B0CE54
:1012330002120818378F031208185D820312081868
:10124300938203120818DC82031208182C840312F9
:1012530008181FA901120818FDE20112081839E342
:1012630001120818F8E40112081821E50112081800
:10127300B4E701120818F8E70112081881E901120E
:10128300081819EA0112081881EA0112081822EB5A
:101293000112081864EB01120818A4EB01120818D4
:1012A3002FED01120818A7B301120818C4F0011298
:1012B3000818F2F00112081819F10112081822F1A6
:1012C30001120818A9F101120818C7F4011208182D
:1012D300E37F001208180C92031208181EED021285
:1012E300081831ED02120818CEED0212081809EEA3
:1012F3000212081824EE0212081849EE0212081806
:101303008EEE02120818BFEE02120818F0EE021257
:10131300081876F002120818828903120818B8898F
:1013230003120818D48903120818168A031208181E
:10133300268A03120818BB8A03120818C58A0312E7
:101343000818B5B20212081895B40212081891B61B
:101353000212081820B90212081806BA0212081855
:10136300BDBB02120818D7BB0212081807BC021231
:10137300081821BC0212081835BC0212081863BCF5
:10138300021208186FBC0212081800800212081813
:10139300558002120818FF8002120818A781021252
:1013A3000818048202120818188202120818E2832D
:1013B300021208185D8402120818878402120818A2
:1013C3002486021208183F86021208188E8602121B
:1013D3000818A48602120818B18602120818E586B6
:1013E30002120818FB8602120818868702120818D0
:1013F300E087021208182E88021208183889021290
:101403000818BA8B02120818548C02120818968C0A
:10141300021208182B8D02120818488D02120818A0
:101423004B8D021208184E8D02120818C18D02123C
:101433000818DC8D02120818088E02120818438E51
:1014430002120818468E0212081840910312081857
:101453004C91031208188691031208187F8E02120A
:101463000818AA8E02120818768F02120818FB8F2A
:1014730002120818649002120818B0900212081899
:101483002F9102120818C191021208184D920212EC
:1014930008188F9202120818FB96021208187B98FC
:1014A30002120818D299021208185E9A021208183A
:1014B300F5A702120818AFA80212081821A90212F0
:1014C3000818BDA9021208182DAA0212081861AB48
:1014D300021208183DAC02120818AEAC021208182A
:1014E3002BAE02120818EDAE0212081804B0021255
:1014F3000818A3B00212081860B102120818B7F650
:10150300021208180BF70212081863F702120818E0
:10151300AEF70212081810F802120818A9F80212FE
:10152300081811F9021208181DF9021208188F84FD
:1015330003120818C084031208187A8503120818C6
:10154300E0850312081805F10212081891F202123D
:10155300081835930312081846930312081869866E
:1015630003120818778603120818889303120818C1
:10157300AA9003120818BA9003120818D590031200
:101583000818369103120818358E03120818BA8EFC
:10159300031208181E8F03120818238D031208184C
:1015A300458D03120818AF8D03120818BA8D031264
:1015B3000818FE8D03120818D9CE02120818E7CEB8
:1015C3000212081828CF0212081849CF021208186D
:1015D300D3CF02120818F5CF0212081861D00212F5
:1015E30008187CD00212081897D002120818A1D04C
:1015F30002120818ABD002120818BED00212081843
:10160300D7D00212081873D1021208182FD202126F
:101613000818A6D20212081820D3021208186CD395
:101623000212081812D402120818EED40212081873
:10163300597C00120818677C00120818E17C00121C
:101643000818C57D001208187E7F00120818D9FFFC
:101653000112081898D60212081804D702120818A3
:10166300C3D702120818CDD80212081826DA0212BC
:10167300081881DA02120818D6DA02120818DFDA1B
:1016830002120818F1DA021208185BDB02120818BA
:101693006FDB0212081879DB02120818CEDB021284
:1016A3000818CADD02120818FCDD021208181EDE33
:1016B3000212081837DE0212081850DE0212081848
:1016C3005ADF02120818F5DF0212081821880312E4
:1016D30008184588031208185E88031208189188B1
:1016E30003120818C28803120818F0880312081896
:1016F3005289031208186189031208186B890312AF
:10170300081878890312081858F9021208187EF984
:1017130002120818BBF902120818CAF902120818B3
:10172300E9F90212081851FA021208185AFA0212B9
:101733000818B9FA02120818DDFA021208189CFBFD
:1017430002120818A9FB02120818BAFB02120818A1
:10175300969203120818B392031208186CE002124F
:101763000818CAE102120818D7E102120818EAE1C0
:101773000212081809E2021208181FE202120818DE
:1017830033E202120818A8E2021208180DE302124B
:101793000818BDE30212081892E402120818A2E422
:1017A30002120818B1E40212081811900312081863
:1017B3003590031208185D900312081885900312E0
:1017C3000818E8FB021208180FFC0212081830FC74
:1017D3000212081895FC0212081800800312081858
:1017E3001980031208182580031208183980031280
:1017F30008185780031208186180031208186B80B9
:10180300031208187E8003120818D18003120818E7
:101813000A810312081839810312081887810312F9
:101823000818D68103120818F18103120818FB81E6
:10183300031208180C8203120818528203120818A4
:1018430088FF011208188BBC02120818B5BC0212DB
:101853000818D1BC02120818E4BC02120818FABC1A
:101863000212081857BD021208188ABD021208187E
:10187300C6C102120818ECC2021208181FC30212D2
:1018830008186BC30212081897C402120818BFC4C1
:1018930002120818D4C402120818E4C40212081869
:1018A30028C50212081889C50212081899C5021220
:1018B3000818DD8A03120818F88A03120818218B06
:1018C300031208183B8B03120818608B03120818C5
:1018D3007F8B03120818978B03120818C58B03120A
:1018E3000818DF8B031208185292031208189EE996
:1018F30002120818A5E902120818B1EA0212081820
:10190300E1EA0212081807EB021208182AEB021286
:1019130008184CEB0212081886EB02120818ECEBBD
:101923000212081825EC0212081871EC02120818AA
:101933009EEC02120818BEEC021208184EFE0212A8
:10194300081860FE021208184BFF02120818D8FF8D
:1019530002120818108C03120818828C031208183C
:10196300C08C03120818018D0312081897F3021292
:101973000818B3F30212081802F4021208181EF42E
:10198300021208184FF4021208185FF40212081822
:101993004BF50212081855F50212081862F50212E7
:1019A300081872F60212081886F6021208188FF643
:1019B30002120818EAE4021208182FE902120818A2
:1019C30034E902120818089303120818D29203127A
:1019D3000818609303120818DBFF02120818DAA62E
:1019E3000112081861A60112081808A601120818A6
:1019F3009CA50112081873A50112081866A3011209
:101A0300081832A301120818FFA201120818E3A252
:101A13000112081809A201120818C1A1011208181D
:101A2300F69F01120818769F01120818739F01127E
:101A330008187E9E011208184C9E01120818899DF1
:101A430001120818B49B01120818459B01120818CB
:101A5300179B01120818149B01120818019B01120D
:101A6300081838B301120818F0B20112081853B25B
:101A73000112081846B20112081854AF01120818CF
:101A8300999A01120818889A011208186999011283
:101A93000818A6AC01120818339901120818F69811
:101AA300011208189798011208186698011208186D
:101AB3007AAB011208189FEE011208182195011242
:101AC3000818129401120818A193011208186693BA
:101AD30001120818319301120818259301120818EE
:101AE300859201120818CC91011208189F8F0112D8
:101AF30008182B8D01120818E98C01120818B48BF1
:101B030001120818698B011208189B8A0112081820
:101B1300F289011208188E8901120818C889011266
:101B23000818CEAA01120818BEE10100000080FBCC
:101B3300E473320000000000000000000000000019
:101B430000000010101010101000003030000000D2
:101B530014285000000000000000000000000000F6
:101B63002828FC284850FC5050000000001038542E
:101B730054301814545438100000000044A8A8B07E
:101B8300541A2A2A44000000000020505060ACA8D8
:101B930098927C000000606020C0000000000000FC
:101BA30000000000040808101010101010080804AA
:101BB300000000402010080408102040000000002E
:101BC30000001010D63838D61010000000000000B6
:101BD300101010FE101010000000000000000000A4
:101BE3000000000000606020C0000000000000FC56
:101BF30000000000000000000000000000000000E2
:101C03000060600000000204040408081010202093
:101C130020400000000030488484848484483000DD
:101C23000000000010701010101010107C00000055
:101C3300000038444404081020447C0000000000E5
:101C430038444418040444443800000000080818C9
:101C5300284848887C081C00000000007C4040782D
:101C6300440444443800000000003C4480B8C48469
:101C730084847800000000007C4448081010101091
:101C830010000000000078848448788484847800FD
:101C930000000000788484848C740488F0000000C1
:101CA3000000000030300000003030000000000071
:101CB30000000010000000001010200000040810B5
:101CC3002040201008040000000000000000FC0079
:101CD30000FC000000000000004020100804081071
:101CE3002040000000000078848484081010003035
:101CF30030000000000038449AAAAAAAB4423C006B
:101D0300000000001010282828384444EE0000008A
:101D13000000F844447844444444F80000000000C0
:101D23003C44848080808044380000000000F048F8
:101D3300444444444448F00000000000FC4440484C
:101D430078484044FC0000000000FC4240487848CA
:101D53004040E000000000003C448480808E8444C6
:101D6300380000000000EE4444447C444444EE0048
:101D7300000000007C101010101010107C000000F8
:101D830000007C101010101010101090E0000000E4
:101D9300EE44485070484844EE0000000000E04024
:101DA300404040404044FC0000000000EE6C6C6C7E
:101DB30054545454D60000000000EE646454545448
:101DC3004C4CE40000000000304884848484844840
:101DD300300000000000F844444478404040E000F4
:101DE30000000000304884848484B448380C000028
:101DF3000000F844447850484844E60000000000DE
:101E03003C44402018040444780000000000FE9283
:101E1300101010101010380000000000EE4444446D
:101E230044444444380000000000EE444428282879
:101E33002810100000000000D6545454546C282875
:101E4300280000000000EE44282810282844EE0053
:101E530000000000EE442828101010103800000085
:101E630000007C88081020204044FC0000001C1067
:101E73001010101010101010101C00007010101013
:101E830010101010101010700000701010101010AF
:101E93001010101010700000102800000000000047
:101EA300000000000000000000000000000000002F
:101EB3000000FE00606020C0000000000000000081
:101EC3000000000000000038441C24443E000000D1
:101ED3000000C040407844444444780000000000BF
:101EE3000000003C444040443800000000000C0463
:101EF300043C444444443E00000000000000003819
:101F0300447C40443800000000001C2420F82020BA
:101F130020207800000000000000003C48483040CA
:101F2300784438000000C040405864444444EE0004
:101F33000000000010000070101010107C00000062
:101F430000000800003808080808080870000000AE
:101F5300C040405C48507048EC0000000000701026
:101F63001010101010107C0000000000000000F89A
:101F730054545454D60000000000000000D86444B8
:101F83004444EE0000000000000000384444444490
:101F9300380000000000000000F844444444784046
:101FA300E00000000000003C444444443C040E00B4
:101FB3000000000000EC30202020F80000000000AA
:101FC3000000003C4430084478000000000000108A
:101FD300107C101010100C0000000000000000CC5A
:101FE300444444443E0000000000000000EE442846
:101FF3002828100000000000000000D65454542884
:10200300280000000000000000DC48303048EC00ED
:1020130000000000000000EE442828101020E0001B
:1020230000000000007C481010247C0000101010F9
:10203300101010101010101010101000013636017F
:10204300010001020100010301000104010606056C
:10205300020000070100340801000F090401010D0B
:102063000100FF0E08000017020000190100FF1A0B
:102073000100011B0100FE1C0100081D0200001FDE
:1020830001000120010001210200002301000F24AF
:102093000200002601000127010008280200FF2A90
:1020A3000100072B0102402C0100002D0100012E2D
:1020B3000100012F0100FF30010B1C310800003A21
:1020C3000100083B01000F2F010000C9EEDBDACA53
:1020D300D0B0B2C1AAB5C2BFC6BCBCD3C3BBA7B53F
:1020E300C7C2BCD5CABAC5C3DCC2EBC8B7B6A8C899
:1020F300A1CFFBD7A8D2B5D7A8D7A2CEDECFDFCD4D
:10210300A8D1B6B3CFD0C5C1A2D7E3B4B4D0C2D699
:10211300C2D4B6C7BFB4F3D4ADCEC2CAAAB6C8D66A
:10212300D5B6CBD2BBB6FEC8FDCBC4CDA3CBAEB523
:10213300E7D7C5BBF0B6CFCDF8B5D8D6B7D0ADB5D8
:10214300F7C6F7C2B7D3C9A3BAA1E6A3A5C6F8CC0D
:10215300E5D2ECB3A3D5FD00010371030103010331
:10216300010301030103220302030103100300031C
:102173000003000300030003000300034203000302
:1021830024030603000300030403120325032303AC
:102193002503230304030403000300030003440390
:1021A30000030003230300036503210035038103B8
:1021B300000305030003000300030302710230015F
:1021C3006002110270020102020202028002100286
:1021D30061023A0041006302730272026202430227
:1021E300000213023800000200020402120200027D
:1021F30000020002000204020402370037003C021E
:1022030044020002390000020002650200023502A6
:1022130081020002050282028302000201017101B0
:1022230001010101110101013101010101018001DC
:10223300100161013B00140063017301720162012B
:1022430043010001130106013D01350004011201A0
:102253000001000100010001040104013301330105
:102263003C01440132013600000100016501000117
:102273003500810100010501820183010001030092
:10228300710030016000110070003102200350041E
:1022930080001000610000001400630073007200EE
:1022A3006200430000001300060000000000040069
:1022B30012000000000000000000040004003700CA
:1022C30037003C02440000000000000000006500ED
:1022D30000003500810000000500000083000000BD
:1022E30036000100060000000F000000000000009F
:1022F30000000000000003FFFF00000403FFFF00D5
:1023030000FFFF0FF4010005C404032000010000D7
:102313000B000000000000000003010F1C0F4C0F16
:10232300220F280F460F3A0F340F520F580F5E0F2C
:102333006A0F2E0F160F100F0100C8140200741439
:1023430003007A1404008014050086140600921416
:10235300FFFF000003EAF5E5D5D5C5B5A59595853D
:10236300857575656555554545353525251515051A
:102373000AE80C02B20C05C40C07B80C0C940C0D43
:10238300A60CFF000000160F00000B150B02000245
:10239300220F32000006061018101E10E60E24103D
:1023A300E00EEC0E661084108A106C107810721018
:1023B30000011916181616152303000C0E020B0440
:1023C3000B0A0708000F00034948424D181725055B
:1023D3000200383C3E363B3B352B432C303016183D
:1023E3001920231A1C1E30303017181921301B1DD9
:1023F3001F305A102A1030103C103610400F640F53
:102403007E10700F760F0204020101010109020020
:10241300000000000000BE040A040015000E00289E
:10242300000C0C0A030908FF1E1E0F04040574F7B1
:10243300120382E99003B0F0900365E4F012193CB3
:102443009003B5E4F0A3F09003B1F0A3F0120E20D3
:10245300121942900334E4F0A3F090242D93FA79F7
:10246300021219A20250C774F2120382EAFEEBFFB2
:10247300548060699003B0E0F91211E08A088B0977
:10248300EA4509604F7C0080010CEC75F003A4F869
:10249300A9F0747328F582742339F583E493F46007
:1024A3002CE493F88508828B83E06870DCAA08EC3F
:1024B30075F003A4F8747428F582742339F583E462
:1024C30093C0E0740193F583D082121B33AA08AB47
:1024D300091211D4EEFAEF6480FB022637EF542081
:1024E300601D120D428A088B09EA4509600A120C25
:1024F300A6AA08AB091211D4EEFAEF642080DAEE33
:10250300A2E0501A90036AE0640F700B7900120C7A
:1025130070E9600312263AEE6401FAEF80BB54209F
:102523007003022605750C00123B0C8B09EA450962
:1025330070107C027D007A207B009003B0E0F912DA
:1025430012FA7C0079047A007B00120D1E8A088B34
:10255300098018850882850983A3A3A3A3A3A3A342
:10256300A3A37401F0850A08850B09E508450960F2
:102573006D7C007904AA08AB09120D1E8A0A8B0B25
:10258300750C01E5082404F8E5091238B024FFF0BE
:10259300A3E034FF125BA370CC850882850983A373
:1025A300A3A3A3A3A3A3A3A3A3E0640170A5850886
:1025B30082850983A3A3A3A3A3A3E05404709485F2
:1025C3000882850983A3A3A3A3A3A3A3A3A3740638
:1025D300F07AB78508828509831227668087120CF3
:1025E300EE7C0079017A007B00120D1E8B09EA450F
:1025F300097009E50C70057A20124A66EE64200220
:10260300251DEF5402600B120E1AEEFAEF6402025C
:1026130024DCEF54046019124BFD124B1D79019019
:102623000363124E81120BB6EEFAEF64040224DC4C
:102633007A007B0002286D900F82122F04120C88FF
:1026430022C082C08374EA1208F785188285198331
:10265300AA82AB83794B1219787408120AB97402EF
:10266300F07409120AB9AA82AB83795012197874EB
:1026730013120AB9E4125050121996741602402A22
:1026830074F712038274E11208F7EAFEEBFFEE4FD0
:102693006033851882851983AC82AD83120D66740D
:1026A30006120AB9E0601E7417120AB9E0FD74013C
:1026B300120AB9E0FCEEFAEFFB7900120ADEE960D8
:1026C3000479A4800279000250C274F6120382EAEC
:1026D300FEEBFF8E828F83A3A3A3A3A3A3E05440A7
:1026E300601B12553F12283460067AFF7BFF801A65
:1026F3008E828F83123CB6FAA3E0FB8003120D8A0D
:1027030074FE6A700374FF6B604112553F124AAA4C
:10271300120DDEE98E828F83600612275FE4800547
:1027230012275F7401F07C767D0C8E828F83124EAC
:102733008112199CE9F5087015EE4F60097901EED5
:10274300FAEFFB120CFAA908024ADB7508CDAA08B6
:102753008E828F83122766E960DF80EAE0240D1200
:10276300418522E0240C124185E0F9120C82227487
:10277300F6120382E9FEEAFF7A0F7B001211CEEA1A
:102783004B60198A828B83740CF0EEA3A3F0EF8A5B
:10279300828B83A3F0124B067900802FEEF9120D82
:1027A300248A088B09A808A909E849601C8882893A
:1027B30083A3A3A3A3A3A3A3A3A374061257CAE04B
:1027C300F9120C3AEEF9120D007910024ADBC082BD
:1027D300C08390036AE0640F7014EA4B60109003A7
:1027E30065E064086005E0640470031227F40240A6
:1027F30054EAFCEBFD7A017B009003B0E0F912127E
:10280300F422C082C0837900EA241DF582EB123CD6
:10281300B324FD600B14600824FD600424FD7001E3
:10282300090240548E828F83A3A3A3A3A3A3A3A3CC
:10283300A312283822123CFBFB120DDEE9228E8202
:102843008F83A3A3A3A3A3A3A3A3A31228386402E0
:10285300228E828F83A3A3A3A3A3A3A3A3A3124024
:102863004B900356E068221208637F0602059D74AD
:10287300F412038274FD1208F78A088B098A828B8B
:1028830083A3A3E0F9120D248A0A8B0BAE0AAF0BC4
:10289300EE4F7003022979850882850983A3E064DA
:1028A300F16030850882850983A3E064CD602485C7
:1028B3000882850983A3E0641A6018850882850964
:1028C30083A3E064E9600C850882850983A3E0643F
:1028D300E170087900120CFAE9706C8508828509A9
:1028E30083A3E0C0E07402120AB9D0E012402FEED5
:1028F300F0A3EF12335A851882851983AA82AB831A
:102903007005120B9E8003120DC67402120AB9E001
:1029130064E970338E828F83122985750A01780AE0
:10292300120854750AE9780A120854E508240CF5CC
:1029330082E509122E4C123337FCA3E0FD8A828B09
:10294300831233511208638E828F83A3A3A3A3A39D
:10295300A3A3A3A3E0640270108E828F83A3A3A317
:10296300A3A3A3A3A3A37406F0850882850983A365
:10297300A3E0F9120D00120CEE900F8612263D0211
:102983002F09E0F8A3E0F9E8FAE9FB2274F4120353
:1029930082EAFEEBFF7508008E828F83A3A3A3A3B5
:1029A300A3E060427508088E828F83A3A3A3A3A329
:1029B300A3A3A3123F5E8B0BEA450B601075082C93
:1029C3008E828F83A3A3A3A3A3E0D2E0F08E828F92
:1029D30083A3A3A3A3A3E0540364016003022A789F
:1029E300430811022A78EE2418122F166033EE24BE
:1029F3001A122F16700F1228547003A3E069707512
:102A03007508228070EE241BF582EF122A7D241AAA
:102A1300F582EF123362EE2419125573120C2880DB
:102A23005412284170037508011228547003A3E05F
:102A3300697006E508D2E1F508E50860158E828F16
:102A430083A3A3E07006E508D2E58004E508D2E697
:102A5300F50812282764017006E508D2E0F5088E10
:102A6300828F83A3A3E0600D122A8B64016006E5C5
:102A730008C2E0F508A908022F0E123CA1122A840D
:102A830022E0FCA3E0FDEE22123C9B123CD3F912A0
:102A93000DCCE922C082C08379018A828B83A3A3F0
:102AA300E0C394024001198A828B83A3A3A3A3E00A
:102AB300C39402400279008A828B83A3A3A3A3A3B6
:102AC300A3A3A3A3E064F87003A3E0F460458A82A0
:102AD3008B83A3A3A3A3A3A3A3A3A3E064F970037A
:102AE300A3E0F4602E8A828B83A3A3A3A3A3A3A34F
:102AF300A3A3E064FA7003A3E0F460178A828B83D4
:102B0300A3A3A3A3A3A3A3A3A3E064FB7003A3E0D2
:102B1300F4700279008A828B83A3A3A3E0F8900365
:102B230053E0686002790002405474F01203827427
:102B3300DE1208F7EAFEEBFF8E828F83A3A3A3A323
:102B4300E0600E900F84124AD26006900F84122622
:102B53003D7403120AB9AC82AD838E828F83A3A323
:102B6300A3124B5412538DE9600F7403120AB9AACE
:102B730082AB83120CA0E97008790112194E022E60
:102B830041EE241B123CA67410120AB9124B1D7499
:102B930009120AB9E06021741A120AB9E0FD74043B
:102BA300120AB9E0FC8E828F83124E7F7901120ADA
:102BB300DEE96004790280C37403120AB9AA82AB06
:102BC30083120C9AE9F50A7409120AB9E0702A9083
:102BD300034DE060247422550A6422601C7442553C
:102BE3000A644270CF7420120AB9122E5F600A740D
:102BF30020120AB9122E5870BBE9A2E650417403A1
:102C0300120AB9AA82AB83120C8EE97003022B7CE1
:102C13007420120AB9123CB66403700F7420120AAE
:102C2300B9A3124AC4A3E0640D60147403120AB971
:102C3300AA82AB83120DF0E964017003022E41EE08
:102C4300242C122E4912316D7003A3E069701C7598
:102C5300080078081208547808120854EE242E123B
:102C63005573122E651233511208637409120AB98F
:102C7300E07003022D1E122E65124E81120E448A3D
:102C8300088B09EA45097003022DBB7404120AB9C3
:102C9300E0F88E828F83A3A3E028F8A3E03400F941
:102CA300E8240D122E508A828B83A3A3A3E06860CD
:102CB3001CE88A828B83A3A3A3F090895B120A96F4
:102CC300850882850983A3A3A3A3120AA27904E931
:102CD300120AB912536A2AF8A3E034008882F583F2
:102CE300A3AA82AB831211BC8A0C8B0D8C0E8D0FA1
:102CF300850882850983A3A3A3A3780C1207F04058
:102D030003022E41908987780C12099985088285E0
:102D13000983A3A3A3A3780C120A7A900365E06442
:102D2300046008E064096003022E41E50AA2E5405D
:102D330003022DF9EE242E122F168518828519838E
:102D4300F0EE242F122F16C0E07401120AB9D0E05E
:102D5300F0EE2430122F16C0E07402120AB9D0E04C
:102D6300F07414120AB9E064017027740E120AB9E0
:102D7300123CACEE2412122F16687003A3E06970A4
:102D830011740C120AB912284E70077414120AB97E
:102D9300E4F0EE2424122E491206687404120AB9D0
:102DA300AC82AD837407120AB9AA82AB83120BA457
:102DB3007404120863022E419003AAE064016003C5
:102DC300022D1E7420120AB9122E5F7009E50AA2A1
:102DD300E65003022D1E7410120AB9E0F47003A327
:102DE300E0F4605AEEFCEFFD7403120AB9AA82AB59
:102DF30083120CAC8048A2E650447420120AB91224
:102E03004E90701A741A120AB9E064027030740397
:102E1300120AB9AA82AB837900120DBA80207420FA
:102E2300120AB9122E587016741A120AB9E0640401
:102E3300700C7403120AB9AA82AB83120DB4742204
:102E430002523CEE240BF582EF123CA122F582E9FB
:102E5300124B36F822125551E0640722123CD36418
:102E63000622EE242A123C9E122A842412123C9E2D
:102E73002274F4120382EAFEEBFF8C088D0990069C
:102E83005AE0600F1228547003A3E0697005120C16
:102E930016804F7900124E74120C468A828B83E59A
:102EA3008245836035A3A3A3A3A3A3E05418602A98
:102EB300E508241BF582E509122E4C12066C123527
:102EC3004A122E4C12066CEE2418125573122EE77A
:102ED300120C58740412086380087900122EE7124A
:102EE3000C1C80278E828F83A3A3A3A3A3A3A3A3D6
:102EF300A3122A84240BF582EF122F00223400F54B
:102F030083123CFBFB2274031208637F0402059DBA
:102F1300EE2417F582EF124B362274F712038274F4
:102F2300F71208F7EAFEEBFF900365E06403600D18
:102F3300E064016008E064096003022FE78E828F7A
:102F430083A3E0707E7C007D007A027B0012194827
:102F5300EE2402FAEF1238B7123CAC900356124B30
:102F63001D795312197E7900122FECE06409600376
:102F730012337F8518828519837401124AF39003F3
:102F8300657404F07401120AB9AA82AB83794A12F8
:102F930019787401120AB9AC82AD837A5B7B031290
:102FA30019669003561253837A03123389900350A0
:102FB300E0A2E35004D2F08002C2F0124AE01226EB
:102FC3003A801E8E828F83A3AE82AF83FC7D007A0C
:102FD300037B101219488E828F83E0F9122FECE4E1
:102FE300F0120CD674090250C4900363122F04121A
:102FF3000BB690036522C082C083900334124AD279
:10300300701F900365E014600924FC600A14600CCF
:10301300800F90033C8032900338802D90033A80D8
:1030230028E8496008900335123331700C8A828B8B
:1030330083A3E0F9120BAA801B9003351235E670C7
:1030430005120E0E800E9003D2124AD26006124A67
:10305300C4121B3302405474F412038274FB12082B
:10306300F78A088B097A0F7B001211CE8A0A8B0B21
:10307300AE0AAF0BEE4F70030231618E828F831263
:10308300504E7950121978850882850983A3E06030
:1030930003023149900363E0F47003A3E0F4603466
:1030A300900363E064FE7003A3E0F4602785188255
:1030B30085198312316D7003A3E069601785088257
:1030C300850983A374EA1233677A637B0379501209
:1030D300197E8072851882851983125532124B1D11
:1030E3007A567B037953121978900356124B4E127A
:1030F3004B1D7A597B03794B1219787A587B0379E4
:10310300E112197890036AE0C3940F502190035899
:10311300E0C0E07402120AB9D0E0F07404120AB9F4
:103123007401F004120AB9AA82AB83121990750ACA
:1031330000780A120854780A120854900FACE0F988
:10314300123348120863850882850983123166A306
:10315300F09003657403F0EEFAEFFB124B0674056F
:10316300022F0BA3E08E828F8322125536E0682252
:1031730012418C2274F512038274D81208F78A085C
:103183008B098A828B83A3A3A3123CD87415120ADA
:10319300B9AC82AD838A828B83A3A3A3A3A3A3A386
:1031A300A3123337FAA3E0FB120CDC7415120AB92D
:1031B300E0706B850882850983A3A3A3A3A3A3A3BC
:1031C300A3E0C3940B40578E828F83A3A3A3A3A32F
:1031D300A3A3A3E064027046EE240B122F16F4702F
:1031E3003D900365E06402603AE064066035900355
:1031F30034124AD26005123331604F900365E064A4
:10320300086005E0640470167417120AB9E0F974D3
:103213001C120AB9AC82AD83124E74120CE27428EC
:10322300025A50900334124AD2701F75080078086E
:103233001208547808120854EE2410122E4912551D
:103243008B12399F1233511208638E828F83124D72
:10325300F01238C9123CAC7402120AB9124B1DEEBB
:10326300240D122F16C0E07404120AB9D0E01233F1
:103273005AF508A3E0F509740F7808120A6B740570
:10328300120AB9E508F07419120AB9E0C0E074062D
:10329300120AB9D0E0F0741B120AB9E0C0E0740757
:1032A300120AB9D0E0F07416120AB9E0C0E074094A
:1032B300120AB9D0E0F07417120AB9E0C0E074083A
:1032C300120AB9D0E0F0EE2410122F16C0E0740AEF
:1032D300120AB9D0E0F0741A120AB9E0C0E0740B14
:1032E300120AB9D0E0F07427120AB9E0C0E0740CF6
:1032F300120AB9D0E0F0741C120AB9A982AA838910
:10330300088A09750A00780812084C7C087D007445
:1033130010120AB9AA82AB83124681120863851878
:1033230082851983AA82AB83120BB0023221123534
:10333300EC640122E0F98A828B83A3A3A3A3A3A352
:10334300A3A3A3E022900363125387900359122F80
:1033530004120D9C740222F0EE240B124B33221242
:103363004B36FA22F07A567B0379531233722212C8
:10337300197E7A597B03794B12197E2290036312CB
:103383002F04120E3E227B00121948900359125348
:10339300877A047B0012194822F01255962274F2A0
:1033A30012038274F81208F7EAFEEBFF8C0A8D0B06
:1033B300890C851882851983AC82AD8375838975E1
:1033C300821D7408120791F50DEEFCEFFD8518823E
:1033D300851983AA82AB83124D517003750D019039
:1033E30003B1803BEEFCEFFDE508240BFAE509345D
:1033F30000124D50601E850882850983A3A3E065F2
:103403000C7011850882850983E0650A7004A3E0C6
:10341300650B6038E5082414F582E509122E4C1279
:1034230038C1E50845096024E50DA2E040B68508EA
:1034330082850983E0650A7004A3E0650B70D58576
:103443000882850983A3A3E0650C70C8AA08AB09A9
:10345300740802286AC082C0839003B10240517489
:10346300F71203829003B1123CFB8012EA2414F595
:1034730082EB122E4C123CD812124CEEFAEFFBEAFE
:103483004B70E99003B1E4F0A3F00250C77F070249
:10349300059D74F1120382EAFEEBFF890A8C088D05
:1034A300098E828F83E08C828D83123F68AE82AF58
:1034B30083E01247411246B2C4124741123553E02A
:1034C30054038C828D831246B0A2E2E4338C828D46
:1034D300831246AF131313541F1247411246AEA271
:1034E300E7E4338C828D83A3A3A3A31235538E0CFD
:1034F3008F0D750E00780C12084C7C087D00E508D2
:1035030024071252F61208631253618E0C8F0D7842
:103513000C12084C7C037D00E508240F1252F612AE
:103523000863E50AC3940F40148E828F83A3A3A379
:10353300E0C0E012354A122E4CD0E0800612354A24
:103543001257BEF0023490E5082412F582E50922F1
:10355300A3A3123F6C0EAF832274F412038274F997
:103563001208F7EAFEEBFF8908900334124AD2608F
:103573000E1235E67009EEFAEFFB120E08805F902B
:103583000363E06E7003A3E06F705374016508601A
:10359300097A777B03124D5170447A007B02123B08
:1035A300108B0BEA450B7036900366120A9685184A
:1035B30082851983120AA290036CE0C0E07404129E
:1035C3000AB9D0E0F07405120AB97401F074061256
:1035D3000AB912504E120B7AE9609B120B807407E2
:1035E300022F0B1235EC640222125552A3A3A3A39C
:1035F300A3A3E02274F51203828A088B098A828BC3
:1036030083A3AE82AF83E0F9120BCE8E828F83E069
:1036130064EB600C850882850983A3E064E170098B
:10362300850882850983A3E4F012263A750A017896
:103633000A120854850882850983A3E0F5087808EF
:103643001208547900123348120863120CEE025A1E
:1036530053EAF0A3EBF002405474F6120382900392
:10366300B4E0701B7C0079017A007B00120D1EEA26
:103673004B600C8A828B83124AD26003120C7C0249
:103683004ADBC082C083123AF8401079FF120D184A
:10369300E9F8902424E493C39850047901800279D3
:1036A3000002405474F01203828A088B09890B7557
:1036B3000C008A828B83A3A3A3A3A3A3A3A3E0F9F0
:1036C300120D248A0E8B0FAE0EAF0F750A01EE4F4B
:1036D3006003023785850882850983A3A3A3A3A377
:1036E300A3125383850882850983A3A3A3A3A3A35A
:1036F300A3124481124E81120D0C8A0C8B0DAE0C59
:10370300AF0DEE4F70030238A88E828F83A3A3A35D
:10371300A3E4F0A3F0E508240B1238B4E0C0E012F0
:103723002E46D0E0F0120DE4EE240CF582EF124A9F
:10373300A6E508240EF582E509123CA9EE240EF550
:1037430082EF124B1A750C01EE2406F8EF1238B013
:10375300547FF0A3E054FC1255E8E05404600302E4
:10376300380B900F8A124472740778081209F88E86
:10377300828F83A3A3A3A3A3A3E04508F0A3E045FB
:1037830009F08E828F83A3A3A3A31238BF74077893
:1037930008120A6BE5085407F508E50B607A8E8278
:1037A3008F83A3A3A3A3A3A3A3A3A374021246B3C8
:1037B300240D124181E0A2E2500B900351124B4EB3
:1037C300A3A3124B1DE508700302387DEE2406F80F
:1037D300EF3400F9E8FAE9FB8A828B83E0547FFC3B
:1037E300A3E054FCFDE50824FFF508E434FFF509E4
:1037F300740778081209F8EC4508F8ED4509F98AC9
:10380300828B83124B1D80728E828F83A3A3A3A30B
:10381300A3A3E04480023784E5087005750A00809D
:10382300598E828F83A3A3A3A3A3A3E05420601282
:103833001211C8EA547F245F8E828F83A3A3A3A3AC
:1038430080238E828F83A3A3A3A3A3A3E05410603A
:103853000A1211C8EA540F240A80DD8E828F83A3D3
:10386300A3A3A37401F0A3E41238C97404123B07A1
:103873008B09EA45097003124A99E50CA2E0502826
:103883008E828F83A3A3A3A31250B4F9EEFAEFFBA6
:10389300120D12E96012124AC86003123C91EEFA4B
:1038A300EFFB12124C750A00A90A02523F124C1187
:1038B30022FAE5093400FB8A828B8322A3A3E0F575
:1038C30008A3E0F509221238CD22125312A3A3A3B1
:1038D300A3A32274F412038274F71208F77E001272
:1038E3000D24EA4B70030239988A828B83A3A3A326
:1038F300A3A3A3A3A3A3E0640660030239988A8267
:103903008B83A3A3A3A3A3A3A3E0FF8A828B831226
:103913004194E0C0E07408120AB9D0E0123CCC1222
:103923004D57124B1D120D36EF54086066851882F1
:103933008519831253837A007B00120D068B0BEAE1
:10394300450B704F900363123DBC1219A87C007D98
:10395300007A007B0080288E828F83123CB6F4703D
:1039630003A3E0F4602D90036312399F124E81127A
:10397300169CE9641A601C7C007D00EEFAEFFB12D2
:103983000D068A0A8B0BAE0AAF0BEE4F70C9790096
:103993001219AE7E01EEF97409022F0B1239A3221C
:1039A300E0FCA3E0FD8E828F8322C082C083EA4BBA
:1039B30070059003B580068A828B83A3A3123BBC58
:1039C30060258A828B83A3A3A3A3A3A3A3E05408A4
:1039D30060E5EC4D60158A828B83123CB66C7003F4
:1039E300A3E06D70D280047A007B0002405474F22D
:1039F300120382EAFEEBFF890A8C088D097A107B99
:103A030000121246EA4B603F8A828B83A3A3A3A3CF
:103A1300A3A3A3A3A3E4123CBAA3E50A125558A394
:103A2300123A548A828B83A3A3A3A3E4F0A3123C88
:103A3300C6A3F01253ECEA240CF582EB123F5812A2
:103A43003A4DA3A3F0A3F002286DA3F08A828B83DF
:103A530022A3A3E508F0A3E509F02274F41203827C
:103A6300EAFEEBFF89088C0A8D0BEE4F605574015B
:103A7300650870147901120D18E9F8902429E4936C
:103A8300C398500F7911806A74046508702F123A35
:103A9300F840F18E828F83A3A3A3A3A3A3A3A3A31D
:103AA300E508123F68A3125ADD8E828F83A3A3E435
:103AB300F0A3F09003B5124AD26021800D74026521
:103AC3000860D079C1802BE0F8A3124B47A3A3125F
:103AD3003BBC88828983A3A370ED80039003B5EE7A
:103AE300F0A3EF123B078B0BEA450B7003124A99C5
:103AF3007900022F0E7904120D18E9F8902430E4AE
:103B030093C39822F0123B0C227A207B009003B0DF
:103B1300E0F912130622C082C083E9F8790090030A
:103B2300B5801D8A828B83A3A3A3A3A3A3A3A3A36B
:103B3300E068600574FF687001098A828B83A3A320
:103B4300123BBC70DE02405474F7120382EA4B70DE
:103B5300059003B580068A828B83A3A3123BBC60C6
:103B6300248A828B83A3A3A3A3A3A3A3A3A3E06910
:103B730070E4EC60148A828B83E0240D125374A2E8
:103B8300E240D380047A007B000250C7C082C08326
:103B93009003B580068A828B83A3A3123BBC601279
:103BA3008A828B83A3A3A3A3A3A3A3A3E06970E542
:103BB30080047A007B00024054122F04EA4B2274E3
:103BC300F21203828A0A8B0B8C0C8D0D750800751B
:103BD3000900EA450B602E9003B580068E828F8321
:103BE300A3A3123C0F601EAC0CAD0DEEFAEFFB85E8
:103BF3000A82850B83121B33E9640170DFEEF8EF51
:103C0300F988088909AA08AB0902286DE0FEA3E038
:103C1300FFEE4F2274F71203829003B5123CAC7C83
:103C2300007D00800DE8FCE9FD88828983A3A3124F
:103C33003CACE8496030EA687002EB6970E79003D6
:103C4300B5124E81E86A7002E96B88828983A3A367
:103C53007008123CAC9003B58009123CAC8C828D89
:103C630083A3A3124B1D0250C774F7120382EAFE0B
:103C7300EBFFEE4F6015120D30123CDE124AC860A6
:103C830003123C91EEFAEFFB12124C0250C7EE24E2
:103C93000C123C9E123CF322EE241DF582EF3400FD
:103CA300F58322F582EF123CA112404B22F582EFFD
:103CB300123CA1123CD322123CBE22125560A3A394
:103CC300A3A322123CBEA3A322123A4E123CD32238
:103CD30012554BE022E0FEA3E0FF228E828F83E0A9
:103CE300241C124185123CF38E828F83123CF322F3
:103CF300123CFBFB12124C22E0FAA3E022C082C06A
:103D030083EAFCEBFDEC4D700479058044EC24FB65
:103D1300F582ED34FF124AD07007123D57E0F4608C
:103D2300051211D480E39003B0E0C0E0123D57D0F8
:103D3300E0F0902426E493F97AB77B031211FEE9AD
:103D43006401700B7A007B20124A9D79008002790E
:103D530004024054EC24FFF582ED34FFF583227412
:103D6300F4120382A2AFE433F508C2AF9003B71293
:103D73003C0F6038EE24FBF582EF34FF124AD07A11
:103D8300007B209003B06005124AA08005E0F91281
:103D9300120AE4F50AF50B780A120850EEFCEFFD5F
:103DA3007AB77B031211F87402120863E508A2E0E4
:103DB30092AFEEFAEFFB022F0E125387851882851E
:103DC3001983AA82AB832274F212038274FC120851
:103DD300F7EAFEEBFF750AFE750BFF120CF4E960C0
:103DE300057911023F4DEE2415122F166037900FFF
:103DF3009EE0C43354E0F8E0333354FC48C0E0EEB3
:103E03002415122E49D0E0123F68123F5E8B09EA57
:103E130045096011750AFFEE240F122F1644041290
:103E23004B2BD2E0F08E828F831228326006EE2471
:103E330012123F55EE2413122F16701090242CE407
:103E430093C0E0EE2413122E49D0E0F08E828F83CC
:103E5300E0A2E750045403801CEE2414122F1670C2
:103E630015900342E0C0E0EE2414122E49D0E0F096
:103E7300900342E004F0EE2411122F166401701631
:103E8300900651E0600D90034DE0700A8E828F839F
:103E9300E07003123F528E828F83E064017013EE51
:103EA300240B123CB064027009EE240F122F164447
:103EB30040F0851882851983AC82AD83EEFAEFFB5F
:103EC300120D5A8A088B0974FE650A700374FFF495
:103ED30070098E828F83A3A3125302EA4509606699
:103EE3008E828F83E0C0E07401120AB9D0E0F074CF
:103EF30002120AB91253F07401120AB985820C85B1
:103F0300830D780C120850EE240F122E4912066C02
:103F1300EE240E122F16F50C780C1208549003564B
:103F230012066C7407120AB9E0F9AC0AAD0B120D54
:103F3300547407120863E9FE74106E700BAA08AB81
:103F43000912124C80027E10EEF9740402286AEE04
:103F53002411F582EF123CA1E4F022A3122F04797D
:103F6300FF121A6822123F6C22F08E828F83A322E3
:103F7300C082C08374DE1208F78A828B83A3A3A353
:103F8300A3123CAC740E120AB9E8F0A3E912404242
:103F9300740C120AB912403B240DF582EB122F194F
:103FA300C0E0741A120AB9D0E0F012524FEB123C7F
:103FB300A97420120AB912403B2415F582EB122F83
:103FC30019C0E07408120AB9D0E0F0EA241CF582A3
:103FD300EB123CA97412120AB912403B2411F58268
:103FE300EB122F19C0E07409120AB9D0E012402F66
:103FF30074FFF07401120AB974FFF07402120AB963
:1040030074FFF090895B1206687404120AB9AC82DB
:10401300AD837407120AB9AA82AB83120BA474048A
:104023001208637900742212086380251240332238
:10403300F085188285198322E8F0A3E9F0EA2212B9
:104043003A4EA312404A22A3E0F8A3E0F922124E0B
:1040530081D083D08202081574EC12038274EE12AD
:1040630008F78A128B13ECFEEDFF89097426120AF6
:10407300B91253027428120AB9E0F5107429120A0E
:10408300B9124176742B120AB9E0F50EA3E0F50FCD
:104093007508107A1E7B001212467402120AB912B6
:1040A3004AAA7402120AB9124AD2700302416F85F6
:1040B3001882851983AA82AB837950124985124EDF
:1040C300817402120AB9124194A3124AAA741012FB
:1040D3000AB9125ADF7402120AB9E0240B124181A1
:1040E3007402F0120AB91241947402F0120AB9125E
:1040F30055431253F07402120AB9124E96E509F0B1
:104103007402120AB9E0240C124181E510F0740222
:10411300120AB912417EE512F0A3E513F0740812F6
:104123000AB9E50CF0A3E50DF0740A120AB9E5101B
:10413300F0850E82850F83C082C083740D120AB985
:10414300AC82AD83D083D0827403120791F97402D9
:10415300120AB9AA82AB83120CFAE96401700575DD
:10416300080080087402120AB9123C97A908741255
:10417300025319E0F50CA3E0F50D22E0241C1241D3
:104183008522F8A3E012418C223400F988828983C6
:1041930022124E89A3A3A3A3A32274EE120382EADD
:1041A300FEEBFF8C088D098E828F83A37408124B5C
:1041B30066E060088E828F83A37410F0122F136061
:1041C300098E828F83A3E02408F0EE2415122F16A4
:1041D30060088E828F83A3E004F08E828F83A3A373
:1041E300A3A3A3A3E060198E828F83A3A3A3A3A396
:1041F300A3A3E0C3332402F88E828F83A3E028F0C5
:10420300EE2411122F166005750B0E8003750B003B
:104213008E828F83A3C082C083EE240D122F16D00B
:1042230083D082F8E028250B8C828D83F0EE241155
:10423300122F16600512469128F08508828509839E
:10424300E0C39475400975080075090002437FE0D7
:10425300FA7B0012549E700302437FEEFAEFFB12C7
:104263000D60EA850882850983124AABEE2402F8C1
:10427300EF1231731244791243BBF0EE24040808A1
:10428300EF1231731248BBA31243BBA3A3F0EE2476
:10429300131243A1F0EE24141243A1A3F0750A08EC
:1042A300EE2416122F166010EE2418125380E50820
:1042B3002408125581750A10122F136016EE241A62
:1042C300125380850A0CE508250C125581740825C4
:1042D3000AF50A8E828F83A3A3A3A3A3A3E0605945
:1042E300EE2407F510EF3400F511851082F583E015
:1042F300C0E0124388122E4CD0E01243ABE0C0E082
:10430300124388122E4CD0E01243ABA312439412F3
:10431300084C851082851183E0C333FCE433FD85AB
:104323000A0CE508250C1252F612086385108285E3
:104333001183E0C333250AF50AEE2415122F166004
:104343000BC0E0124388122E4CD0E0F0122E46121E
:10435300439412084CEE240D122F16FC7D00850B9E
:104363000A8E828F83A3E0F8E50828F8E509340074
:10437300F9E8250AFAE91252F9120863AA08AB0907
:104383007F0A02059D850A0CE508250CF582E509DF
:1043930022E0F50CA3E0F50D750E00780C22123C1B
:1043A3009E1243C5A3A3A322F0050A8E828F83A383
:1043B300A3A3A3A3A3A3A322A3A31255ECA31243D2
:1043C300C5221248BFA3A32274F61203828A828BEA
:1043D30083E0FC900353124472740278081209F8C4
:1043E300EC4508FCAD09EA241212446C7406780803
:1043F3001209F8EC4508FCED4509FDEA2415F582A0
:10440300EB122F196004780180027800E4C8F9EDFB
:1044130049FDEA2411F582EB122F19F50888097476
:104423000978081209F8ED4509FDEA241612446CCF
:10443300740B78081209F8ED4509FDEA24171244B4
:104443006C740C78081209F8ED4509FD8A828B8398
:10445300A3A3A3A3A3A3124472740A78081209F8AE
:10446300ECFAED4509FB024ADBF582EB123CA1E0D5
:10447300F50875090022E085088285098322A3E0F7
:10448300F98508828509832274EE1203828A0A8BD6
:104493000BECFEEDFF750F01E9C39408500579009D
:1044A30002467E8E828F83E9F01248E4E960037549
:1044B3000F001248C88E828F83124912EE12525097
:1044C300EF124907C0E0EE2411122E49D0E0124842
:1044D300FFC0E0EE2412122E49D0E0123F687408A8
:1044E30012530AA3A3A3E060151248B0EE2413F5F8
:1044F30082EF124B1A8E828F83A3E02408F08E8200
:104503008F83A3A3A3A3A3A3A3A3E060218E828F7E
:1045130083A38582088583091248F3EE2415F58267
:10452300EF124B1A850882850983E02408F08E82F6
:104533008F83A3A3A3A3A3E0601A8E828F83A38593
:1045430082088583091248D78E828F83A3A3A3A3EE
:10455300A31246A3EE2419123F55EE241B123F5516
:10456300A3124B5EE07003024612EE2419F8EF34F7
:1045730000F98E828F83A3858208858309E0FAE59B
:104583000A2AF582E50B122F19888289831246A322
:10459300FAE50A2AF582E50B122F19C0E0EE241A78
:1045A300122E49D0E01246A388828983E06059F82D
:1045B300902425E493C398500575110C8008EE24CC
:1045C30019122F16F5118E828F83A3E0F8E50A28BE
:1045D300F50CE50B12468712084CE511C333FCE4D6
:1045E30033FD7A327B0E124681120863EE241B12CE
:1045F3002E497432F0A3740EF0E511C333F8850825
:1046030082850983E0288006EE24181257BBF08EBA
:10461300828F83A3E0F88E828F83E0C398500302D6
:1046230044A1A3E0FA8A08E50A2508F8E50B34005B
:10463300F9EE241DF582EF124C261246B3C39AC03D
:10464300E0EE2417122E49D0E0124B23602BEE2408
:1046530017F8EF3400F9880889098882F583E02484
:10466300F2124C07240EFAA3E03400FB88828983FC
:10467300124AAA124691C398F0A90F02438312115A
:10468300AA7403223400F50D750E00780C229003F2
:104693004EE0F9120AE4E9F8850882850983E022ED
:1046A300F0850882850983E004F022A3A3A3A3A3D2
:1046B300F08E828F83E02274F41203828A088B09BE
:1046C300EA124748F0EA1313543F124741A3A3A346
:1046D300F0EAC41313124748A3A3F0EB12473A12AC
:1046E30047527409780A120A6B12473812475174F9
:1046F3000A780A120A6BE50A5401C0E0EC2418F5A3
:1047030082ED122E4CD0E0124757740B780A120A2E
:104713006B124738A3124751740C780A120A6B12B2
:104723004738A3A3A3A3A3A3A3A3F0740D780812EC
:104733000A6B022A78E50A54018C828D8322540F76
:104743008C828D832254038C828D83A3A322A3A303
:10475300A3A3A3A3F08A0A8B0B22C082C083790090
:104763008A828B83A3A3A3A3A3A3E090034D600F2B
:10477300E070228A828B83A3A3E07019098016E07C
:1047830060138A828B83124E78900356E06A70031B
:10479300A3E06B70E702405474F01203828A0A8B21
:1047A3000B890C8C088D091248E41248C8850882CD
:1047B300850983124912E508125250E50912490787
:1047C300C0E0E5082411F582E509122E4CD0E01271
:1047D30048FFC0E012354A122E4CD0E0124C2E7422
:1047E30008124C4760111248B0E5082413124C22FA
:1047F300124C2EE02408F0850882850983A3A3A325
:10480300A3A3A3A3A3E06017850882850983A3124A
:1048130048EFE5082415124C221246B32408F0850C
:104823000882850983A3A3A3A3A3E0601985088253
:10483300850983A3AE82AF831248D7850882850991
:10484300831246AE04F0AA08AB09120D72E9F50D06
:104853007056850882850983A3A3A3A3A3A3124843
:10486300BB7014E0FA8A0EE50A250EF8E50B124B2D
:104873000FE50CC39A80211248EFE8240EF8E912E1
:104883004B0F90034EE0F9120AE48E828F83E0F817
:10489300E50CC39824F2C399C0E0E5082417F58218
:1048A300E509122E4CD0E0F0A90D02523FE50A248F
:1048B30008F8E50B3400F9221248BF22E08508828C
:1048C300850983A322850A82850B83A3A312492822
:1048D300E0F9EA22E0F8E50A28F582E50B124B3607
:1048E300228A828B83125244120D6C22AE82AF83D2
:1048F300E0F8E50A28F8E50B3400F92212493BA356
:10490300A3A3E022123CA1E8124934A3A3E022A30B
:10491300A3A3A3A3A3A3A3A3124934124928A3A324
:10492300E0F9EAF822E0FA850A82850B83A3A3A3C0
:1049330022F0A3E912493B22F0850A82850B83A367
:10494300A3A3A322C082C0837AC57B0379E2121991
:10495300787AC57B03024054C082C0839003560219
:104963004051C082C08374FE1208F78518828519EE
:1049730083AA82AB83794B124985124E817402025A
:10498300402A12197885188285198322C082C08330
:10499300794A12197802405474F61203829003CDB7
:1049A300E0FE04F0EEF9120D248B09EA450970EDDF
:1049B300EE60EAF9024ADB74F0120382EAFEEBFFCF
:1049C3008C088D09890A7410120AB9E0F50B741169
:1049D300120AB9E0F50C120E44EA4B7013E50C70A1
:1049E30042A90AAC08AD09EEFAEFFB120E5C806E29
:1049F300E50A6021EA2402F582EB122F19850A08E1
:104A03002508F8E4340013E813F070098A828B83D5
:104A1300A3A37401F0E50C6045E50B70068A828B55
:104A230083E4F07401650C7035E50B9003D47004D6
:104A3300E4F0802AE004F0900F8BE0F89003D4E0D8
:104A4300C398401AE4F0900359E06E7003A3E06F3B
:104A5300700CEEFAEFFB7901120BC8124A64025292
:104A63003F7A017B009003B0E0F912130022C08269
:104A7300C08374016A7001EB70077A01124A9B804C
:104A830012900F82124AAAEA4B60051227F48003A0
:104A9300124A640240547A207B009003B0E0F9127A
:104AA3001204223400F583EAF0A3EBF022C082C0A3
:104AB30083900F84023654C082C083900F860236DF
:104AC3005412555222EE240CF582EF3400F5831272
:104AD300404BE849221208637F0202059DA2F0E4DD
:104AE30033851882851983124AFC795212197E2262
:104AF300124AFC794212197E22F0AA82AB8322AABF
:104B030008AB099003B0E0F91211DA223400F9E599
:104B130008241DF582E509123CA1E8F0A3E9F0227F
:104B230012530EA3A3E022A3F0EE2415124B33225B
:104B3300F582EF3400F583E022124B40223400F576
:104B430083E0F8A3E0F98882898322E0F8124B54CA
:104B530022A3E0F98E828F83A3A322F0EE241812FE
:104B63003C9E22F0EE2416123C9E2274F412038221
:104B7300EAFEEBFF7A007B04124A68124BFD124BEC
:104B83001D9003657409F0120D7E8A088B09AC0829
:104B9300AD09EE2413122E49124E81124D516401B8
:104BA30070487A0F124BF060418A828B8374021231
:104BB3004C07FAA3E0FB8A828B83A3E0FC8A828BF7
:104BC30083A3A3E0FBEC850882850983A3A3124A90
:104BD300AB88828983124E85124479124B2AFAA339
:104BE300E0FB794A12197E124B02022F0E7B001250
:104BF30011CE8A088B09EA45092290033612404BED
:104C0300900F8622F0EE241DF8EF124C1122124170
:104C13008CE022124C1A223400F5837401F022F541
:104C230082E509123CA1E8F0A3E922124C322212D8
:104C33004C3622F0850882850983A322124C36A3C1
:104C4300A3A3A322124C3FA3A3E022125058120D98
:104C5300D222EE2417F582EF124C1A120D7EEE24A7
:104C63001A123C9EEAF0A3EBF02274F4120382744E
:104C7300F31208F78908EAFEEBFF7C0D7D0079004B
:104C8300851882851983AA82AB831211B6EE241D7F
:104C9300122E49125543A3E0F8741F58600A790194
:104CA30012194E7900024D48E8A2E55008740C121F
:104CB3000AB97401F0E8A2E75008740B120AB97438
:104CC30001F0E8A2E6740A5008120AB97401F080F0
:104CD30008120AB9E064017005EE24138003EE2480
:104CE300151253807402120AB9AA82AB8312196691
:104CF300122E46124D56124B1D740A120AB9E06465
:104D0300017033122827703B120D8A8A0A8B0BA875
:104D13000AA90BEE240B122F16687003A3E0697027
:104D230022120D7EEAFCEBFD7402120AB9AA82ABD1
:104D330083124D51600D851882851983AA82AB8336
:104D4300120BC2A908740D022F0BEEFAEFFB121916
:104D530060E922E0124D5B22F8A3E0F98518828511
:104D630019832274F612038274F31208F78A088BEC
:104D730009ECFEEDFF7C0D7D007900851882851915
:104D830083AA82AB831256E8A3A3A3A3A3A3A3A3DB
:104D9300A3124DF0124DF9F8A2E55008740B120A54
:104DA300B97401F0E8A2E75008740A120AB9740151
:104DB300F0E8A2E6EE500424138002241512538077
:104DC3007402120AB9124DE2A3A3E0C0E0740C12FC
:104DD3000AB9D0E0125050120BBC740D024AD8AA83
:104DE30082AB8312196685088285098322E0124DFE
:104DF3005BE8F0A3E922F0123C9B125547A3E022A3
:104E030074F712038274E11208F7EAFEEBFF8E8255
:104E13008F83124E85A3A3A3E0A2E050518E828F0D
:104E2300831229878A828B83A3A3A3A3A3A3E0541A
:104E3300FE124E9D8A828B83124E96E0F98A828BF4
:104E430083E0241CFAA3E01238B7124E81120D78C6
:104E5300E9701B741D120AB9124E907011851882E5
:104E6300851983AC82AD83EEFAEFFB120DC00250BD
:104E7300C28E828F83A3A3A3A3A3A3A3A3A3122F4F
:104E83000422124E892212554BA3A3A322123CD310
:104E9300640422E0241B12418522124033AC82AD0C
:104EA3008322E9F87900740468600A740A6860056B
:104EB30074036870010902081574F61203828A826A
:104EC3008B837420F0A3A37401F0120B6E8A088BFA
:104ED30009AE08AF09EE4F60108E828F837401F024
:104EE3009003A3E07003124C55EEFAEFFB024ADB8A
:104EF300C082C0839003B97401F0E9A2E350037444
:104F030003F0E9A2E15004E0D2E2F002405474F667
:104F130012038279007C008A088B0978081205E362
:104F2300F8FF07444F424F424F424F424F3B4F3FE0
:104F33004F444F384F0C80097C0480050C80F67C6D
:104F4300089003B9E05C6003098003EC6001090287
:104F53004ADB74F61203828A828B83E07012A312F7
:104F63004AD2600C8A828B83124E80121A8C800480
:104F73007A007B00024ADB74F512038274F3120891
:104F8300F78A088B09ECFEEDFF750A12EA450970F2
:104F9300057900025049900356E065087004A3E0C8
:104FA30065097014120D7EEAFCEBFD124D4D700580
:104FB300750A018003750A00851882851983E4F058
:104FC30004120AB9E508F0A3E509125050120B3296
:104FD300E960277403120AB9AA82AB83120B14E99E
:104FE30064017016750A017403120AB9AC82AD83A9
:104FF300124D4D6021750A00801C7412650A7016EB
:105003009003A2E06402700EEEFCEFFDAA08AB0968
:10501300120B4AE970DFEEFCEFFDAA08AB09120E92
:105023004AE9F8740A687005750A01801774A06864
:105033007012EEFCEFFDAA08AB09120E56AA08ABDC
:1050430009120E68A90A740D025A507402125054C0
:105053002212505822124033AA82AB832274F712D1
:105063000382EAFEEBFF8E828F83A3A3A3A3A3A3F2
:10507300A3A3E06015EE2415122E49122EF4120D8F
:10508300EAE964017004790180258E828F83A3A3EA
:10509300A3A3A3A3A3E06015EE2413122E49125079
:1050A300B4FAA3E0FB120DEAE9640160D979008048
:1050B300131239A3A3A3A3A3A3A3A3A3A3E02274BB
:1050C3001F1208637F0102059D74F012038274FDB1
:1050D3001208F78A088B09ECFEEDFF890B74131293
:1050E3000AB9E0F50C750A017401120AB9740412C5
:1050F300557B6048E50C601DEA2417F582EB1257D7
:10510300BE1255698A828B83E0D2E7F0EA2414F554
:1051130082EB123F5812524FEB124B3C7403125A5C
:10512300E1EE88828983A3A3F0EF88828983A3A316
:10513300123A4D123A54120B68E9F50AA90A74039C
:1051430002523C74EC12038274F51208F78A0A8B3C
:105153000B890C8C0E8D0F741F120AB9E0F50D74B8
:1051630020120AB9E0F510A3E0F5117E01EE120A50
:10517300B9740AF0E97007E50DC333240AF012533A
:105183002170030252231253367409F0A3E50CC4B1
:105193003354E0450D125348E50C702D7C008023F9
:1051A300ECC333F8E433F9E51028F8E51139F9884D
:1051B30082898312523088828983123166F0A30E6A
:1051C300AF830CECC3950D40D7E5082417F582E5B2
:1051D30009124C16120D7EE508241AF582E5091210
:1051E3004AA67403120AB9AC82AD83AA0AAB0B12A6
:1051F3000B1AE96019E5082416F582E50912522A0B
:10520300120AB9A882A983E5082418124B16850847
:1052130082850983125ADDAA08AB09120B68E9FEDD
:10522300EEF9740B025319124C1A740322E08E82A6
:105233008F83F0A3AE82AF83221208637F08020537
:105243009D123CFBF9EA2400E439FB22EA240BF526
:10525300822274EE1203828A0C8B0D890E8C088DC8
:10526300097412120AB9E0F50F7413120AB9125332
:10527300029005C0124AD26077E50FC333F8E433D6
:10528300F9E8240EFAE93400FB1211CE8A108B11CF
:10529300AE10AF11EE4F60588E828F8374D4F0A39B
:1052A300A3E50CF0A3E50D12530AE50EF0AC08AD2F
:1052B30009EE2405FAEF125584EE240D122E49E56A
:1052C3000FF0850A08850B09750A00780812084C47
:1052D300E50FC333FCE433FDEE240EFAEF1252F96B
:1052E300120863EEFAEFFB9005C0125543121B330D
:1052F300024383FAE5093400FB1211AA740322E086
:10530300F50AA3E0F50B2212530E221253122212B6
:105313003F6CA3A3A3221208637F0C02059D85188B
:1053230082851983AA82AB83120DD28A088B09EA7C
:10533300450922EA240BF582EB124B36FEA3E0FF6C
:105343008E828F8322F0A3AE82AF83AC0EAD0FEEBD
:10535300FAEFFB12535A2212196612536122EE24FA
:1053630008FEEF3400FF22E0FA8E828F83A3A3E0CE
:1053730022FEA3E03400FF8E828F83E022123C9E44
:1053830012538722E0FCA3E0FD22122F04120D66C4
:105393002274F6120382EAFEEBFF9003BA801388AD
:1053A300828983E06E7003A3E06F603A8882898309
:1053B300A3A3124AD270E87A047B001212468A0829
:1053C3008B09A808A909E849601C888289831253BC
:1053D300F09003BA124E8188828983A3A3124AAA4A
:1053E3009003BA124B1D024ADB8A828B83EEF0A331
:1053F300EFF02274F41203827E009003BA80070E4A
:1054030088828983A3A3124AD270F4EEC333FAE4E9
:1054130033FB12549E607E7F009003BA80248882FF
:105423008983125383EFC333FAE433FBE5082AF588
:1054330082E5093BF583ECF0A3EDF00F88828983C5
:10544300A3A3124AD270D79003AB1228617003A3AF
:10545300E06978087019120850EEF50A780A120804
:10546300547C777D0379009003AB1254A9801A1200
:105473000850EEF50A780A1208547C777D03790008
:105483009003AB124E81120DFC7403120863AA0839
:10549300AB0912124C120B80022F0E1212468A080D
:1054A3008B09EA450922122F04120E0222C082C080
:1054B3008380128A828B83A3A3123CAC9003BA121B
:1054C3004B1D12124C9003BA123BBC70E6024054BF
:1054D30074F6120382900363123CD89003CE1255E4
:1054E30032124B1D7ACE7B03795012197E9003CE74
:1054F300122A80FAEFFB120E629003CE123CD89070
:1055030005C2124AD260257A067B001211CEEA4BFD
:10551300601A8A828B8374D5F0A3A3E412555804CE
:105523001255699005C2125543121B33024ADB120E
:10553300553622E0F8A3E0F9900363228E828F832D
:105543001255472212554B22E0F812555122A3E07F
:10555300F58388822212555C2212556022F08A82DA
:105563008B83A3A3A32212555CA3EEF0A3EFF02237
:10557300F582EF124B36F922124C4EEA4B22FAE532
:10558300093400FB12196622124B55A3A3A3A3A34C
:10559300A3A322902427E4932401F8E43400F97AA6
:1055A300027B002274F71203827E008004125B9454
:1055B3000E1256B840F77E00EE1255D374FEF0A3D8
:1055C300041255E8E4F00EEEC3940340EB0250C717
:1055D30075F003A4F8A9F074BC28F8740339F988AA
:1055E300828983A3221255EC22F088828983227454
:1055F300F71203827F0080010F90242FE493F8EFCA
:10560300C3985026EF1257A46A7003A3E06B70E8A7
:10561300125B416C7003A3E06D600A74FF6C70034E
:1056230074FF6D70D31256AF80047A007B00025072
:10563300C774F61203827CFF7DFF7AFE7BFF120E96
:1056430026EA4B70407508008036E50875F017A40C
:10565300F8A9F074CD28F582740C1257B6600C7457
:10566300CC28F582740C1257B6701374BE28FE74DE
:105673000C39FF8E828F831257C3EEFAEFFB0508B6
:1056830012571E40C5024ADB74F41203828A088B48
:1056930009ECFEEDFF800B120E38EEFCEFFDAA08BD
:1056A300AB09120E26EA4B70EE022F0E74BE28FAD7
:1056B300740C39FB2290242FE493F8EEC3982274E0
:1056C300F7120382EAFEEBFFEE4F60101256E2740C
:1056D300FEF0A304125AE714F0A304F00250C77CAF
:1056E300177D0079001211B68E828F832274F71210
:1056F3000382EAFEEBFF7508008018E50875F017D2
:10570300A4F8A9F0125B4C7003A3E06F6003125B73
:105713009C050812571E40E30250C790242FE493C0
:10572300F8E508C3982274F6120382120E268A083B
:105733008B09A808A909E849600AE8240DFAE934A5
:1057430000FB80047A007B00024ADB74F4120382BC
:105753008A0A8B0BECFEEDFF750800750900802E9D
:10576300E50975F017A4F8A9F0125B87601EE50937
:105773001257A4650A7004A3E0650B700375080A49
:10578300EEFCEFFD125A4360034308A00509902481
:105793002FE493F8E509C3985004E50860C2022A90
:1057A3007875F017A4F8A9F01257AF2274BE28F544
:1057B30082740C39F583E022F582EF123CA1E422D6
:1057C300122F04120C5E221255ECA3A3A3A3A3A3CE
:1057D300A3A32274F21203828A088B09ECFEEDFF65
:1057E300740E120AB9125302750C007C007D0180FD
:1057F300101211C8E50CF5F0EA84ACF0750C007DCD
:10580300007800790080031259801259DC400302AA
:1058130058A2E8FAE9FBEA75F017A4FA85F00D75CA
:10582300F017EBA4250D1259B87003A3E0F460D769
:1058330012599665087004A3E0650960CA12599667
:105843006E7003A3E06F60BF125996650A7004A3DC
:10585300E0650B60B2E8FAE9FBEA75F017A4FA75A4
:10586300F017EBA4250DFB74CC2AF582740C1259A6
:1058730077509474016D050C608DE50CC39C4087D3
:10588300E875F017A4F8AAF075F017E9A42AF974DB
:10589300BE28F582740C39F583124E81025974784F
:1058A30000790080031259801259E9400302595BC1
:1058B300E8FAE9FBEA75F012A4FA85F00D1259C86B
:1058C30064FE7003A3E0F460DC1259BE6508700443
:1058D300A3E0650960CF1259BE6E7003A3E06F6049
:1058E300C41259BE650A7004A3E0650B60B7E8FAF9
:1058F300E9FBEA75F012A4FA75F012EBA4250DFB8F
:10590300744D2AF582740B1259775099E8FAE9FB22
:10591300EA75F012A4FA75F012EBA4250D12598959
:1059230064016081E0640270030258A874016D058C
:105933000C70030258A8E50CC39C50030258A8E856
:1059430075F012A4F8AAF075F012E9A42AF97444C8
:1059530028F582740B025899E50C6011EC700E74F3
:1059630001650C60030257F47C010257FF7AFE7B4A
:10597300FF02286D3BF583E014C3940622E824015B
:1059830008E93400F922FB74482AF582740B3BF5CD
:1059930083E022E8FAE9FBEA75F017A4FA75F01739
:1059A300EBA4250D1259AB22FB74BE2AF582740CAD
:1059B3003BF583E0221259AB64FE22E8FAE9FBEAE5
:1059C30075F012A4FA75F012EBA4250DFB74442AAA
:1059D300F582740B3BF583E02290242FE493FAC302
:1059E300E89AE994002290241EE493FA740193FB4D
:1059F300C3E89AE99B2274F51203828A088B09ECA7
:105A0300FEEDFF750A008002050A90242FE493F847
:105A1300E50AC3985028EEFCEFFDE50A75F017A4DC
:105A2300F8A9F0125A4360E0E50A75F017A4F8A943
:105A3300F074BE28F582740C39F583123A5680103F
:105A430074C028FA740C39FB121960E92212086336
:105A53007F0302059D74F01203828A088B098C0A66
:105A63008D0B890C120E2C8A0E8B0FAE0EAF0FEE20
:105A73004F60551256E2E508F0A3E509125AE71202
:105A83005ADFE50C600AEE240F122E49E50C80065E
:105A9300EE240F125AD7F09003D0124AD2601A9014
:105AA30003AAE064017008EE240E1257BB8010EEC7
:105AB300240E122E4974078006EE240E125AD712B2
:105AC300339C120231125ACE02523FEE240D123C85
:105AD3009EE8F022123C9E740122A3A3E50AF0A3E0
:105AE300E50BF0221238CDA32274F51203828A0843
:105AF3008B09ECFEEDFF750A00800F125B4C7003FF
:105B0300A3E06F6003125B9C050A90242FE493F8D3
:105B1300E50AC3985025E50A75F017A4F8A9F01211
:105B23005B4165087004A3E0650970CF74C828F56C
